{
  "_format": "hh-sol-artifact-1",
  "contractName": "DepositMinterV2",
  "sourceName": "contracts/DepositMinterV2.sol",
  "abi": [
    {
      "inputs": [
        {
          "internalType": "address",
          "name": "target",
          "type": "address"
        }
      ],
      "name": "AddressEmptyCode",
      "type": "error"
    },
    {
      "inputs": [
        {
          "internalType": "address",
          "name": "token",
          "type": "address"
        }
      ],
      "name": "ApprovalFailed",
      "type": "error"
    },
    {
      "inputs": [
        {
          "internalType": "address",
          "name": "implementation",
          "type": "address"
        }
      ],
      "name": "ERC1967InvalidImplementation",
      "type": "error"
    },
    {
      "inputs": [],
      "name": "ERC1967NonPayable",
      "type": "error"
    },
    {
      "inputs": [],
      "name": "FailedCall",
      "type": "error"
    },
    {
      "inputs": [],
      "name": "GovernanceNotSet",
      "type": "error"
    },
    {
      "inputs": [],
      "name": "HTSAborted",
      "type": "error"
    },
    {
      "inputs": [
        {
          "internalType": "string",
          "name": "operation",
          "type": "string"
        },
        {
          "internalType": "int64",
          "name": "responseCode",
          "type": "int64"
        }
      ],
      "name": "HTSOperationFailed",
      "type": "error"
    },
    {
      "inputs": [
        {
          "internalType": "string",
          "name": "tokenType",
          "type": "string"
        },
        {
          "internalType": "uint256",
          "name": "required",
          "type": "uint256"
        },
        {
          "internalType": "uint256",
          "name": "provided",
          "type": "uint256"
        }
      ],
      "name": "InsufficientDeposit",
      "type": "error"
    },
    {
      "inputs": [],
      "name": "InsufficientHbar",
      "type": "error"
    },
    {
      "inputs": [],
      "name": "InsufficientMintFee",
      "type": "error"
    },
    {
      "inputs": [],
      "name": "InsufficientVaultHbar",
      "type": "error"
    },
    {
      "inputs": [],
      "name": "InvalidAmount",
      "type": "error"
    },
    {
      "inputs": [],
      "name": "InvalidInitialization",
      "type": "error"
    },
    {
      "inputs": [
        {
          "internalType": "uint256",
          "name": "value",
          "type": "uint256"
        }
      ],
      "name": "InvalidRatio",
      "type": "error"
    },
    {
      "inputs": [],
      "name": "LPModuleNotSet",
      "type": "error"
    },
    {
      "inputs": [],
      "name": "NotInitializing",
      "type": "error"
    },
    {
      "inputs": [],
      "name": "OnlyAdmin",
      "type": "error"
    },
    {
      "inputs": [],
      "name": "OnlyGovernance",
      "type": "error"
    },
    {
      "inputs": [],
      "name": "OnlyRewardVault",
      "type": "error"
    },
    {
      "inputs": [],
      "name": "RouterNotSet",
      "type": "error"
    },
    {
      "inputs": [],
      "name": "SaucerSwapNotConfigured",
      "type": "error"
    },
    {
      "inputs": [],
      "name": "StethNotSet",
      "type": "error"
    },
    {
      "inputs": [],
      "name": "TokenAddressZero",
      "type": "error"
    },
    {
      "inputs": [
        {
          "internalType": "address",
          "name": "token",
          "type": "address"
        }
      ],
      "name": "TokenNotInComposition",
      "type": "error"
    },
    {
      "inputs": [],
      "name": "TokenNotSet",
      "type": "error"
    },
    {
      "inputs": [
        {
          "internalType": "address",
          "name": "token",
          "type": "address"
        }
      ],
      "name": "TransferFailed",
      "type": "error"
    },
    {
      "inputs": [],
      "name": "UUPSUnauthorizedCallContext",
      "type": "error"
    },
    {
      "inputs": [
        {
          "internalType": "bytes32",
          "name": "slot",
          "type": "bytes32"
        }
      ],
      "name": "UUPSUnsupportedProxiableUUID",
      "type": "error"
    },
    {
      "inputs": [],
      "name": "WhbarHelperNotSet",
      "type": "error"
    },
    {
      "inputs": [],
      "name": "ZeroSupply",
      "type": "error"
    },
    {
      "anonymous": false,
      "inputs": [
        {
          "indexed": true,
          "internalType": "address",
          "name": "user",
          "type": "address"
        },
        {
          "indexed": false,
          "internalType": "uint256",
          "name": "lynxAmount",
          "type": "uint256"
        },
        {
          "indexed": false,
          "internalType": "uint256",
          "name": "lynxBaseUnits",
          "type": "uint256"
        }
      ],
      "name": "BurnAttempt",
      "type": "event"
    },
    {
      "anonymous": false,
      "inputs": [
        {
          "indexed": false,
          "internalType": "int64",
          "name": "responseCode",
          "type": "int64"
        },
        {
          "indexed": false,
          "internalType": "int64",
          "name": "newTotalSupply",
          "type": "int64"
        }
      ],
      "name": "BurnResult",
      "type": "event"
    },
    {
      "anonymous": false,
      "inputs": [
        {
          "indexed": true,
          "internalType": "address",
          "name": "user",
          "type": "address"
        },
        {
          "indexed": false,
          "internalType": "uint256",
          "name": "totalTokensProcessed",
          "type": "uint256"
        }
      ],
      "name": "DepositsProcessed",
      "type": "event"
    },
    {
      "anonymous": false,
      "inputs": [
        {
          "indexed": true,
          "internalType": "address",
          "name": "oldGovernance",
          "type": "address"
        },
        {
          "indexed": true,
          "internalType": "address",
          "name": "newGovernance",
          "type": "address"
        }
      ],
      "name": "GovernanceAddressUpdated",
      "type": "event"
    },
    {
      "anonymous": false,
      "inputs": [
        {
          "indexed": false,
          "internalType": "uint64",
          "name": "version",
          "type": "uint64"
        }
      ],
      "name": "Initialized",
      "type": "event"
    },
    {
      "anonymous": false,
      "inputs": [
        {
          "indexed": true,
          "internalType": "uint256",
          "name": "tokenSN",
          "type": "uint256"
        },
        {
          "indexed": false,
          "internalType": "uint256",
          "name": "amount0",
          "type": "uint256"
        },
        {
          "indexed": false,
          "internalType": "uint256",
          "name": "amount1",
          "type": "uint256"
        }
      ],
      "name": "LPFeesCollected",
      "type": "event"
    },
    {
      "anonymous": false,
      "inputs": [
        {
          "indexed": true,
          "internalType": "uint256",
          "name": "tokenSN",
          "type": "uint256"
        }
      ],
      "name": "LPPositionClosed",
      "type": "event"
    },
    {
      "anonymous": false,
      "inputs": [
        {
          "indexed": true,
          "internalType": "uint256",
          "name": "tokenSN",
          "type": "uint256"
        },
        {
          "indexed": false,
          "internalType": "address",
          "name": "token0",
          "type": "address"
        },
        {
          "indexed": false,
          "internalType": "address",
          "name": "token1",
          "type": "address"
        },
        {
          "indexed": false,
          "internalType": "uint24",
          "name": "fee",
          "type": "uint24"
        },
        {
          "indexed": false,
          "internalType": "int24",
          "name": "tickLower",
          "type": "int24"
        },
        {
          "indexed": false,
          "internalType": "int24",
          "name": "tickUpper",
          "type": "int24"
        },
        {
          "indexed": false,
          "internalType": "uint128",
          "name": "liquidity",
          "type": "uint128"
        },
        {
          "indexed": false,
          "internalType": "uint256",
          "name": "amount0",
          "type": "uint256"
        },
        {
          "indexed": false,
          "internalType": "uint256",
          "name": "amount1",
          "type": "uint256"
        }
      ],
      "name": "LPPositionCreated",
      "type": "event"
    },
    {
      "anonymous": false,
      "inputs": [
        {
          "indexed": true,
          "internalType": "uint256",
          "name": "tokenSN",
          "type": "uint256"
        },
        {
          "indexed": false,
          "internalType": "uint128",
          "name": "liquidityRemoved",
          "type": "uint128"
        },
        {
          "indexed": false,
          "internalType": "uint256",
          "name": "amount0",
          "type": "uint256"
        },
        {
          "indexed": false,
          "internalType": "uint256",
          "name": "amount1",
          "type": "uint256"
        }
      ],
      "name": "LPPositionDecreased",
      "type": "event"
    },
    {
      "anonymous": false,
      "inputs": [
        {
          "indexed": true,
          "internalType": "address",
          "name": "user",
          "type": "address"
        },
        {
          "indexed": false,
          "internalType": "uint256",
          "name": "lynxAmount",
          "type": "uint256"
        }
      ],
      "name": "LynxBurned",
      "type": "event"
    },
    {
      "anonymous": false,
      "inputs": [
        {
          "indexed": true,
          "internalType": "address",
          "name": "user",
          "type": "address"
        },
        {
          "indexed": false,
          "internalType": "uint256",
          "name": "lynxAmount",
          "type": "uint256"
        }
      ],
      "name": "LynxMinted",
      "type": "event"
    },
    {
      "anonymous": false,
      "inputs": [
        {
          "indexed": true,
          "internalType": "address",
          "name": "user",
          "type": "address"
        },
        {
          "indexed": false,
          "internalType": "uint256",
          "name": "lynxAmount",
          "type": "uint256"
        },
        {
          "indexed": false,
          "internalType": "uint256",
          "name": "lynxBaseUnits",
          "type": "uint256"
        }
      ],
      "name": "MintAttempt",
      "type": "event"
    },
    {
      "anonymous": false,
      "inputs": [
        {
          "indexed": false,
          "internalType": "int64",
          "name": "responseCode",
          "type": "int64"
        },
        {
          "indexed": false,
          "internalType": "int64",
          "name": "newTotalSupply",
          "type": "int64"
        }
      ],
      "name": "MintResult",
      "type": "event"
    },
    {
      "anonymous": false,
      "inputs": [
        {
          "indexed": false,
          "internalType": "uint256",
          "name": "hbarRatio",
          "type": "uint256"
        },
        {
          "indexed": false,
          "internalType": "uint256",
          "name": "wbtcRatio",
          "type": "uint256"
        },
        {
          "indexed": false,
          "internalType": "uint256",
          "name": "usdcRatio",
          "type": "uint256"
        },
        {
          "indexed": false,
          "internalType": "uint256",
          "name": "wethRatio",
          "type": "uint256"
        },
        {
          "indexed": false,
          "internalType": "uint256",
          "name": "xsauceRatio",
          "type": "uint256"
        },
        {
          "indexed": true,
          "internalType": "address",
          "name": "updatedBy",
          "type": "address"
        }
      ],
      "name": "RatiosUpdated",
      "type": "event"
    },
    {
      "anonymous": false,
      "inputs": [
        {
          "indexed": true,
          "internalType": "address",
          "name": "oldVault",
          "type": "address"
        },
        {
          "indexed": true,
          "internalType": "address",
          "name": "newVault",
          "type": "address"
        }
      ],
      "name": "RewardVaultUpdated",
      "type": "event"
    },
    {
      "anonymous": false,
      "inputs": [
        {
          "indexed": false,
          "internalType": "address",
          "name": "router",
          "type": "address"
        }
      ],
      "name": "SaucerSwapV1ConfigUpdated",
      "type": "event"
    },
    {
      "anonymous": false,
      "inputs": [
        {
          "indexed": false,
          "internalType": "uint256",
          "name": "oldSupply",
          "type": "uint256"
        },
        {
          "indexed": false,
          "internalType": "uint256",
          "name": "newSupply",
          "type": "uint256"
        },
        {
          "indexed": false,
          "internalType": "uint256",
          "name": "newSupplyHuman",
          "type": "uint256"
        }
      ],
      "name": "SupplyAdjusted",
      "type": "event"
    },
    {
      "anonymous": false,
      "inputs": [
        {
          "indexed": false,
          "internalType": "uint256",
          "name": "amountIn",
          "type": "uint256"
        },
        {
          "indexed": false,
          "internalType": "uint256",
          "name": "amountOut",
          "type": "uint256"
        }
      ],
      "name": "SwapWhbarToUsdc",
      "type": "event"
    },
    {
      "anonymous": false,
      "inputs": [
        {
          "indexed": true,
          "internalType": "address",
          "name": "token",
          "type": "address"
        },
        {
          "indexed": true,
          "internalType": "address",
          "name": "spender",
          "type": "address"
        },
        {
          "indexed": false,
          "internalType": "uint256",
          "name": "amount",
          "type": "uint256"
        }
      ],
      "name": "TokenApprovalGranted",
      "type": "event"
    },
    {
      "anonymous": false,
      "inputs": [
        {
          "indexed": true,
          "internalType": "address",
          "name": "token",
          "type": "address"
        },
        {
          "indexed": false,
          "internalType": "uint256",
          "name": "amount",
          "type": "uint256"
        }
      ],
      "name": "TokenWithdrawnFromLp",
      "type": "event"
    },
    {
      "anonymous": false,
      "inputs": [
        {
          "indexed": false,
          "internalType": "address",
          "name": "token",
          "type": "address"
        },
        {
          "indexed": false,
          "internalType": "int64",
          "name": "responseCode",
          "type": "int64"
        }
      ],
      "name": "TokensAssociated",
      "type": "event"
    },
    {
      "anonymous": false,
      "inputs": [
        {
          "indexed": true,
          "internalType": "address",
          "name": "user",
          "type": "address"
        },
        {
          "indexed": false,
          "internalType": "uint256",
          "name": "hbarAmount",
          "type": "uint256"
        },
        {
          "indexed": false,
          "internalType": "uint256",
          "name": "wbtcAmount",
          "type": "uint256"
        },
        {
          "indexed": false,
          "internalType": "uint256",
          "name": "usdcAmount",
          "type": "uint256"
        },
        {
          "indexed": false,
          "internalType": "uint256",
          "name": "wethAmount",
          "type": "uint256"
        },
        {
          "indexed": false,
          "internalType": "uint256",
          "name": "xsauceAmount",
          "type": "uint256"
        }
      ],
      "name": "TokensDeposited",
      "type": "event"
    },
    {
      "anonymous": false,
      "inputs": [
        {
          "indexed": true,
          "internalType": "address",
          "name": "user",
          "type": "address"
        },
        {
          "indexed": false,
          "internalType": "uint256",
          "name": "hbarAmount",
          "type": "uint256"
        },
        {
          "indexed": false,
          "internalType": "uint256",
          "name": "wbtcAmount",
          "type": "uint256"
        },
        {
          "indexed": false,
          "internalType": "uint256",
          "name": "usdcAmount",
          "type": "uint256"
        },
        {
          "indexed": false,
          "internalType": "uint256",
          "name": "wethAmount",
          "type": "uint256"
        },
        {
          "indexed": false,
          "internalType": "uint256",
          "name": "xsauceAmount",
          "type": "uint256"
        }
      ],
      "name": "TokensWithdrawn",
      "type": "event"
    },
    {
      "anonymous": false,
      "inputs": [
        {
          "indexed": false,
          "internalType": "address",
          "name": "from",
          "type": "address"
        },
        {
          "indexed": false,
          "internalType": "address",
          "name": "to",
          "type": "address"
        },
        {
          "indexed": false,
          "internalType": "uint256",
          "name": "amount",
          "type": "uint256"
        }
      ],
      "name": "TransferAttempt",
      "type": "event"
    },
    {
      "anonymous": false,
      "inputs": [
        {
          "indexed": false,
          "internalType": "int64",
          "name": "responseCode",
          "type": "int64"
        }
      ],
      "name": "TransferResult",
      "type": "event"
    },
    {
      "anonymous": false,
      "inputs": [
        {
          "indexed": true,
          "internalType": "address",
          "name": "oldTreasury",
          "type": "address"
        },
        {
          "indexed": true,
          "internalType": "address",
          "name": "newTreasury",
          "type": "address"
        }
      ],
      "name": "TreasuryUpdated",
      "type": "event"
    },
    {
      "anonymous": false,
      "inputs": [
        {
          "indexed": true,
          "internalType": "address",
          "name": "implementation",
          "type": "address"
        }
      ],
      "name": "Upgraded",
      "type": "event"
    },
    {
      "anonymous": false,
      "inputs": [
        {
          "indexed": true,
          "internalType": "address",
          "name": "tokenA",
          "type": "address"
        },
        {
          "indexed": true,
          "internalType": "address",
          "name": "tokenB",
          "type": "address"
        },
        {
          "indexed": false,
          "internalType": "uint256",
          "name": "amountA",
          "type": "uint256"
        },
        {
          "indexed": false,
          "internalType": "uint256",
          "name": "amountB",
          "type": "uint256"
        },
        {
          "indexed": false,
          "internalType": "uint256",
          "name": "liquidity",
          "type": "uint256"
        }
      ],
      "name": "V1LiquidityAdded",
      "type": "event"
    },
    {
      "anonymous": false,
      "inputs": [
        {
          "indexed": true,
          "internalType": "address",
          "name": "tokenA",
          "type": "address"
        },
        {
          "indexed": true,
          "internalType": "address",
          "name": "tokenB",
          "type": "address"
        },
        {
          "indexed": false,
          "internalType": "uint256",
          "name": "amountA",
          "type": "uint256"
        },
        {
          "indexed": false,
          "internalType": "uint256",
          "name": "amountB",
          "type": "uint256"
        },
        {
          "indexed": false,
          "internalType": "uint256",
          "name": "liquidity",
          "type": "uint256"
        }
      ],
      "name": "V1LiquidityRemoved",
      "type": "event"
    },
    {
      "anonymous": false,
      "inputs": [
        {
          "indexed": true,
          "internalType": "address",
          "name": "lpModule",
          "type": "address"
        },
        {
          "indexed": false,
          "internalType": "uint256",
          "name": "amount",
          "type": "uint256"
        }
      ],
      "name": "WhbarTransferredToLp",
      "type": "event"
    },
    {
      "anonymous": false,
      "inputs": [
        {
          "indexed": true,
          "internalType": "address",
          "name": "user",
          "type": "address"
        },
        {
          "indexed": false,
          "internalType": "uint256",
          "name": "totalTokensProcessed",
          "type": "uint256"
        }
      ],
      "name": "WithdrawalsProcessed",
      "type": "event"
    },
    {
      "inputs": [],
      "name": "ADMIN",
      "outputs": [
        {
          "internalType": "address",
          "name": "",
          "type": "address"
        }
      ],
      "stateMutability": "view",
      "type": "function"
    },
    {
      "inputs": [],
      "name": "GOVERNANCE",
      "outputs": [
        {
          "internalType": "address",
          "name": "",
          "type": "address"
        }
      ],
      "stateMutability": "view",
      "type": "function"
    },
    {
      "inputs": [],
      "name": "HBAR_RATIO",
      "outputs": [
        {
          "internalType": "uint256",
          "name": "",
          "type": "uint256"
        }
      ],
      "stateMutability": "view",
      "type": "function"
    },
    {
      "inputs": [],
      "name": "LP_MODULE",
      "outputs": [
        {
          "internalType": "address",
          "name": "",
          "type": "address"
        }
      ],
      "stateMutability": "view",
      "type": "function"
    },
    {
      "inputs": [],
      "name": "LYNX_DECIMALS",
      "outputs": [
        {
          "internalType": "uint8",
          "name": "",
          "type": "uint8"
        }
      ],
      "stateMutability": "view",
      "type": "function"
    },
    {
      "inputs": [],
      "name": "LYNX_TOKEN",
      "outputs": [
        {
          "internalType": "address",
          "name": "",
          "type": "address"
        }
      ],
      "stateMutability": "view",
      "type": "function"
    },
    {
      "inputs": [],
      "name": "MAX_RATIO",
      "outputs": [
        {
          "internalType": "uint256",
          "name": "",
          "type": "uint256"
        }
      ],
      "stateMutability": "view",
      "type": "function"
    },
    {
      "inputs": [],
      "name": "MIN_RATIO",
      "outputs": [
        {
          "internalType": "uint256",
          "name": "",
          "type": "uint256"
        }
      ],
      "stateMutability": "view",
      "type": "function"
    },
    {
      "inputs": [],
      "name": "SAUCE_TOKEN",
      "outputs": [
        {
          "internalType": "address",
          "name": "",
          "type": "address"
        }
      ],
      "stateMutability": "view",
      "type": "function"
    },
    {
      "inputs": [],
      "name": "STETH_TOKEN",
      "outputs": [
        {
          "internalType": "address",
          "name": "",
          "type": "address"
        }
      ],
      "stateMutability": "view",
      "type": "function"
    },
    {
      "inputs": [],
      "name": "TREASURY",
      "outputs": [
        {
          "internalType": "address",
          "name": "",
          "type": "address"
        }
      ],
      "stateMutability": "view",
      "type": "function"
    },
    {
      "inputs": [],
      "name": "UPGRADE_INTERFACE_VERSION",
      "outputs": [
        {
          "internalType": "string",
          "name": "",
          "type": "string"
        }
      ],
      "stateMutability": "view",
      "type": "function"
    },
    {
      "inputs": [],
      "name": "USDC_DECIMALS",
      "outputs": [
        {
          "internalType": "uint8",
          "name": "",
          "type": "uint8"
        }
      ],
      "stateMutability": "view",
      "type": "function"
    },
    {
      "inputs": [],
      "name": "USDC_RATIO",
      "outputs": [
        {
          "internalType": "uint256",
          "name": "",
          "type": "uint256"
        }
      ],
      "stateMutability": "view",
      "type": "function"
    },
    {
      "inputs": [],
      "name": "USDC_TOKEN",
      "outputs": [
        {
          "internalType": "address",
          "name": "",
          "type": "address"
        }
      ],
      "stateMutability": "view",
      "type": "function"
    },
    {
      "inputs": [],
      "name": "WBTC_DECIMALS",
      "outputs": [
        {
          "internalType": "uint8",
          "name": "",
          "type": "uint8"
        }
      ],
      "stateMutability": "view",
      "type": "function"
    },
    {
      "inputs": [],
      "name": "WBTC_RATIO",
      "outputs": [
        {
          "internalType": "uint256",
          "name": "",
          "type": "uint256"
        }
      ],
      "stateMutability": "view",
      "type": "function"
    },
    {
      "inputs": [],
      "name": "WBTC_TOKEN",
      "outputs": [
        {
          "internalType": "address",
          "name": "",
          "type": "address"
        }
      ],
      "stateMutability": "view",
      "type": "function"
    },
    {
      "inputs": [],
      "name": "WETH_DECIMALS",
      "outputs": [
        {
          "internalType": "uint8",
          "name": "",
          "type": "uint8"
        }
      ],
      "stateMutability": "view",
      "type": "function"
    },
    {
      "inputs": [],
      "name": "WETH_RATIO",
      "outputs": [
        {
          "internalType": "uint256",
          "name": "",
          "type": "uint256"
        }
      ],
      "stateMutability": "view",
      "type": "function"
    },
    {
      "inputs": [],
      "name": "WETH_TOKEN",
      "outputs": [
        {
          "internalType": "address",
          "name": "",
          "type": "address"
        }
      ],
      "stateMutability": "view",
      "type": "function"
    },
    {
      "inputs": [],
      "name": "WHBAR_HELPER",
      "outputs": [
        {
          "internalType": "address",
          "name": "",
          "type": "address"
        }
      ],
      "stateMutability": "view",
      "type": "function"
    },
    {
      "inputs": [],
      "name": "WHBAR_TOKEN",
      "outputs": [
        {
          "internalType": "address",
          "name": "",
          "type": "address"
        }
      ],
      "stateMutability": "view",
      "type": "function"
    },
    {
      "inputs": [],
      "name": "XSAUCE_DECIMALS",
      "outputs": [
        {
          "internalType": "uint8",
          "name": "",
          "type": "uint8"
        }
      ],
      "stateMutability": "view",
      "type": "function"
    },
    {
      "inputs": [],
      "name": "XSAUCE_RATIO",
      "outputs": [
        {
          "internalType": "uint256",
          "name": "",
          "type": "uint256"
        }
      ],
      "stateMutability": "view",
      "type": "function"
    },
    {
      "inputs": [],
      "name": "XSAUCE_TOKEN",
      "outputs": [
        {
          "internalType": "address",
          "name": "",
          "type": "address"
        }
      ],
      "stateMutability": "view",
      "type": "function"
    },
    {
      "inputs": [
        {
          "internalType": "address",
          "name": "tokenA",
          "type": "address"
        },
        {
          "internalType": "address",
          "name": "tokenB",
          "type": "address"
        },
        {
          "internalType": "uint256",
          "name": "amountADesired",
          "type": "uint256"
        },
        {
          "internalType": "uint256",
          "name": "amountBDesired",
          "type": "uint256"
        },
        {
          "internalType": "uint256",
          "name": "amountAMin",
          "type": "uint256"
        },
        {
          "internalType": "uint256",
          "name": "amountBMin",
          "type": "uint256"
        },
        {
          "internalType": "uint256",
          "name": "deadline",
          "type": "uint256"
        }
      ],
      "name": "addLiquidityV1",
      "outputs": [
        {
          "internalType": "uint256",
          "name": "amountA",
          "type": "uint256"
        },
        {
          "internalType": "uint256",
          "name": "amountB",
          "type": "uint256"
        },
        {
          "internalType": "uint256",
          "name": "liquidity",
          "type": "uint256"
        }
      ],
      "stateMutability": "nonpayable",
      "type": "function"
    },
    {
      "inputs": [
        {
          "internalType": "address",
          "name": "token",
          "type": "address"
        },
        {
          "internalType": "uint256",
          "name": "amountTokenDesired",
          "type": "uint256"
        },
        {
          "internalType": "uint256",
          "name": "amountTokenMin",
          "type": "uint256"
        },
        {
          "internalType": "uint256",
          "name": "amountHBARMin",
          "type": "uint256"
        },
        {
          "internalType": "uint256",
          "name": "deadline",
          "type": "uint256"
        }
      ],
      "name": "addLiquidityV1ETH",
      "outputs": [
        {
          "internalType": "uint256",
          "name": "amountToken",
          "type": "uint256"
        },
        {
          "internalType": "uint256",
          "name": "amountHBAR",
          "type": "uint256"
        },
        {
          "internalType": "uint256",
          "name": "liquidity",
          "type": "uint256"
        }
      ],
      "stateMutability": "payable",
      "type": "function"
    },
    {
      "inputs": [
        {
          "internalType": "uint256",
          "name": "newSupply",
          "type": "uint256"
        }
      ],
      "name": "adjustSupply",
      "outputs": [],
      "stateMutability": "nonpayable",
      "type": "function"
    },
    {
      "inputs": [
        {
          "internalType": "uint256",
          "name": "hbarRatio",
          "type": "uint256"
        },
        {
          "internalType": "uint256",
          "name": "wbtcRatio",
          "type": "uint256"
        },
        {
          "internalType": "uint256",
          "name": "usdcRatio",
          "type": "uint256"
        },
        {
          "internalType": "uint256",
          "name": "wethRatio",
          "type": "uint256"
        },
        {
          "internalType": "uint256",
          "name": "xsauceRatio",
          "type": "uint256"
        }
      ],
      "name": "adminUpdateRatios",
      "outputs": [],
      "stateMutability": "nonpayable",
      "type": "function"
    },
    {
      "inputs": [
        {
          "internalType": "address",
          "name": "token",
          "type": "address"
        },
        {
          "internalType": "uint256",
          "name": "amount",
          "type": "uint256"
        }
      ],
      "name": "approveSaucerSwapSpending",
      "outputs": [],
      "stateMutability": "nonpayable",
      "type": "function"
    },
    {
      "inputs": [
        {
          "internalType": "address",
          "name": "token",
          "type": "address"
        },
        {
          "internalType": "uint256",
          "name": "amount",
          "type": "uint256"
        }
      ],
      "name": "approveSaucerSwapV1Spending",
      "outputs": [],
      "stateMutability": "nonpayable",
      "type": "function"
    },
    {
      "inputs": [],
      "name": "associateSaucerSwapTokens",
      "outputs": [],
      "stateMutability": "nonpayable",
      "type": "function"
    },
    {
      "inputs": [
        {
          "internalType": "address",
          "name": "token",
          "type": "address"
        }
      ],
      "name": "associateTokenAdmin",
      "outputs": [],
      "stateMutability": "nonpayable",
      "type": "function"
    },
    {
      "inputs": [],
      "name": "associateTokens",
      "outputs": [],
      "stateMutability": "nonpayable",
      "type": "function"
    },
    {
      "inputs": [
        {
          "internalType": "uint256",
          "name": "lynxAmount",
          "type": "uint256"
        }
      ],
      "name": "burn",
      "outputs": [],
      "stateMutability": "nonpayable",
      "type": "function"
    },
    {
      "inputs": [
        {
          "internalType": "uint256",
          "name": "lynxAmount",
          "type": "uint256"
        }
      ],
      "name": "burnLynxTokens",
      "outputs": [],
      "stateMutability": "nonpayable",
      "type": "function"
    },
    {
      "inputs": [
        {
          "internalType": "uint256",
          "name": "lynxAmount",
          "type": "uint256"
        }
      ],
      "name": "calculateRequiredDeposits",
      "outputs": [
        {
          "internalType": "uint256",
          "name": "hbarRequired",
          "type": "uint256"
        },
        {
          "internalType": "uint256",
          "name": "wbtcRequired",
          "type": "uint256"
        },
        {
          "internalType": "uint256",
          "name": "usdcRequired",
          "type": "uint256"
        },
        {
          "internalType": "uint256",
          "name": "wethRequired",
          "type": "uint256"
        },
        {
          "internalType": "uint256",
          "name": "xsauceRequired",
          "type": "uint256"
        }
      ],
      "stateMutability": "view",
      "type": "function"
    },
    {
      "inputs": [
        {
          "internalType": "uint256",
          "name": "lynxAmount",
          "type": "uint256"
        }
      ],
      "name": "calculateWithdrawalAmounts",
      "outputs": [
        {
          "internalType": "uint256",
          "name": "hbarWithdrawal",
          "type": "uint256"
        },
        {
          "internalType": "uint256",
          "name": "wbtcWithdrawal",
          "type": "uint256"
        },
        {
          "internalType": "uint256",
          "name": "usdcWithdrawal",
          "type": "uint256"
        },
        {
          "internalType": "uint256",
          "name": "wethWithdrawal",
          "type": "uint256"
        },
        {
          "internalType": "uint256",
          "name": "xsauceWithdrawal",
          "type": "uint256"
        }
      ],
      "stateMutability": "view",
      "type": "function"
    },
    {
      "inputs": [],
      "name": "checkAssociations",
      "outputs": [
        {
          "internalType": "bool",
          "name": "lynxAssociated",
          "type": "bool"
        },
        {
          "internalType": "bool",
          "name": "wbtcAssociated",
          "type": "bool"
        },
        {
          "internalType": "bool",
          "name": "usdcAssociated",
          "type": "bool"
        },
        {
          "internalType": "bool",
          "name": "wethAssociated",
          "type": "bool"
        },
        {
          "internalType": "bool",
          "name": "xsauceAssociated",
          "type": "bool"
        }
      ],
      "stateMutability": "nonpayable",
      "type": "function"
    },
    {
      "inputs": [
        {
          "internalType": "uint256",
          "name": "tokenSN",
          "type": "uint256"
        },
        {
          "internalType": "uint256",
          "name": "amount0Min",
          "type": "uint256"
        },
        {
          "internalType": "uint256",
          "name": "amount1Min",
          "type": "uint256"
        },
        {
          "internalType": "uint256",
          "name": "deadline",
          "type": "uint256"
        },
        {
          "internalType": "bool",
          "name": "unwrapHbar",
          "type": "bool"
        }
      ],
      "name": "closeLPPosition",
      "outputs": [
        {
          "internalType": "uint256",
          "name": "amount0",
          "type": "uint256"
        },
        {
          "internalType": "uint256",
          "name": "amount1",
          "type": "uint256"
        }
      ],
      "stateMutability": "nonpayable",
      "type": "function"
    },
    {
      "inputs": [
        {
          "internalType": "uint256",
          "name": "tokenSN",
          "type": "uint256"
        },
        {
          "internalType": "bool",
          "name": "unwrapHbar",
          "type": "bool"
        }
      ],
      "name": "collectLPFees",
      "outputs": [
        {
          "internalType": "uint256",
          "name": "amount0",
          "type": "uint256"
        },
        {
          "internalType": "uint256",
          "name": "amount1",
          "type": "uint256"
        }
      ],
      "stateMutability": "nonpayable",
      "type": "function"
    },
    {
      "inputs": [
        {
          "internalType": "address",
          "name": "",
          "type": "address"
        },
        {
          "internalType": "address",
          "name": "",
          "type": "address"
        },
        {
          "internalType": "address",
          "name": "whbar",
          "type": "address"
        },
        {
          "internalType": "address",
          "name": "whbarHelper",
          "type": "address"
        }
      ],
      "name": "configureSaucerSwap",
      "outputs": [],
      "stateMutability": "nonpayable",
      "type": "function"
    },
    {
      "inputs": [
        {
          "internalType": "address",
          "name": "router",
          "type": "address"
        }
      ],
      "name": "configureSaucerSwapV1",
      "outputs": [],
      "stateMutability": "nonpayable",
      "type": "function"
    },
    {
      "inputs": [
        {
          "components": [
            {
              "internalType": "address",
              "name": "token0",
              "type": "address"
            },
            {
              "internalType": "address",
              "name": "token1",
              "type": "address"
            },
            {
              "internalType": "uint24",
              "name": "fee",
              "type": "uint24"
            },
            {
              "internalType": "int24",
              "name": "tickLower",
              "type": "int24"
            },
            {
              "internalType": "int24",
              "name": "tickUpper",
              "type": "int24"
            },
            {
              "internalType": "uint256",
              "name": "amount0Desired",
              "type": "uint256"
            },
            {
              "internalType": "uint256",
              "name": "amount1Desired",
              "type": "uint256"
            },
            {
              "internalType": "uint256",
              "name": "amount0Min",
              "type": "uint256"
            },
            {
              "internalType": "uint256",
              "name": "amount1Min",
              "type": "uint256"
            },
            {
              "internalType": "uint256",
              "name": "deadline",
              "type": "uint256"
            }
          ],
          "internalType": "struct ILPModule.CreateLPParams",
          "name": "params",
          "type": "tuple"
        }
      ],
      "name": "createLPPosition",
      "outputs": [
        {
          "internalType": "uint256",
          "name": "tokenSN",
          "type": "uint256"
        },
        {
          "internalType": "uint128",
          "name": "liquidity",
          "type": "uint128"
        },
        {
          "internalType": "uint256",
          "name": "amount0",
          "type": "uint256"
        },
        {
          "internalType": "uint256",
          "name": "amount1",
          "type": "uint256"
        }
      ],
      "stateMutability": "payable",
      "type": "function"
    },
    {
      "inputs": [
        {
          "internalType": "uint256",
          "name": "tokenSN",
          "type": "uint256"
        },
        {
          "internalType": "uint128",
          "name": "liquidityToRemove",
          "type": "uint128"
        },
        {
          "internalType": "uint256",
          "name": "amount0Min",
          "type": "uint256"
        },
        {
          "internalType": "uint256",
          "name": "amount1Min",
          "type": "uint256"
        },
        {
          "internalType": "uint256",
          "name": "deadline",
          "type": "uint256"
        },
        {
          "internalType": "bool",
          "name": "unwrapHbar",
          "type": "bool"
        }
      ],
      "name": "decreaseLPPosition",
      "outputs": [
        {
          "internalType": "uint256",
          "name": "amount0",
          "type": "uint256"
        },
        {
          "internalType": "uint256",
          "name": "amount1",
          "type": "uint256"
        }
      ],
      "stateMutability": "nonpayable",
      "type": "function"
    },
    {
      "inputs": [],
      "name": "getActiveLPPositionCount",
      "outputs": [
        {
          "internalType": "uint256",
          "name": "count",
          "type": "uint256"
        }
      ],
      "stateMutability": "view",
      "type": "function"
    },
    {
      "inputs": [],
      "name": "getCurrentRatios",
      "outputs": [
        {
          "internalType": "uint256",
          "name": "hbarRatio",
          "type": "uint256"
        },
        {
          "internalType": "uint256",
          "name": "wbtcRatio",
          "type": "uint256"
        },
        {
          "internalType": "uint256",
          "name": "usdcRatio",
          "type": "uint256"
        },
        {
          "internalType": "uint256",
          "name": "wethRatio",
          "type": "uint256"
        },
        {
          "internalType": "uint256",
          "name": "xsauceRatio",
          "type": "uint256"
        }
      ],
      "stateMutability": "view",
      "type": "function"
    },
    {
      "inputs": [],
      "name": "getHbarBalance",
      "outputs": [
        {
          "internalType": "uint256",
          "name": "",
          "type": "uint256"
        }
      ],
      "stateMutability": "view",
      "type": "function"
    },
    {
      "inputs": [
        {
          "internalType": "uint256",
          "name": "tokenSN",
          "type": "uint256"
        }
      ],
      "name": "getLPPositionDetails",
      "outputs": [
        {
          "internalType": "address",
          "name": "token0",
          "type": "address"
        },
        {
          "internalType": "address",
          "name": "token1",
          "type": "address"
        },
        {
          "internalType": "uint24",
          "name": "fee",
          "type": "uint24"
        },
        {
          "internalType": "int24",
          "name": "tickLower",
          "type": "int24"
        },
        {
          "internalType": "int24",
          "name": "tickUpper",
          "type": "int24"
        },
        {
          "internalType": "uint128",
          "name": "liquidity",
          "type": "uint128"
        }
      ],
      "stateMutability": "view",
      "type": "function"
    },
    {
      "inputs": [],
      "name": "getLPPositions",
      "outputs": [
        {
          "internalType": "uint256[]",
          "name": "",
          "type": "uint256[]"
        }
      ],
      "stateMutability": "view",
      "type": "function"
    },
    {
      "inputs": [
        {
          "internalType": "address",
          "name": "admin",
          "type": "address"
        },
        {
          "internalType": "address",
          "name": "lynxToken",
          "type": "address"
        },
        {
          "internalType": "address",
          "name": "wbtcToken",
          "type": "address"
        },
        {
          "internalType": "address",
          "name": "usdcToken",
          "type": "address"
        },
        {
          "internalType": "address",
          "name": "wethToken",
          "type": "address"
        },
        {
          "internalType": "address",
          "name": "xsauceToken",
          "type": "address"
        },
        {
          "internalType": "address",
          "name": "stethToken",
          "type": "address"
        },
        {
          "internalType": "address",
          "name": "treasury",
          "type": "address"
        },
        {
          "internalType": "uint256",
          "name": "initialSupply",
          "type": "uint256"
        }
      ],
      "name": "initialize",
      "outputs": [],
      "stateMutability": "nonpayable",
      "type": "function"
    },
    {
      "inputs": [],
      "name": "lynxTotalSupply",
      "outputs": [
        {
          "internalType": "uint256",
          "name": "",
          "type": "uint256"
        }
      ],
      "stateMutability": "view",
      "type": "function"
    },
    {
      "inputs": [
        {
          "internalType": "uint256",
          "name": "lynxAmount",
          "type": "uint256"
        },
        {
          "internalType": "uint256",
          "name": "wbtcAmount",
          "type": "uint256"
        },
        {
          "internalType": "uint256",
          "name": "usdcAmount",
          "type": "uint256"
        },
        {
          "internalType": "uint256",
          "name": "wethAmount",
          "type": "uint256"
        },
        {
          "internalType": "uint256",
          "name": "xsauceAmount",
          "type": "uint256"
        }
      ],
      "name": "mintWithDeposits",
      "outputs": [],
      "stateMutability": "payable",
      "type": "function"
    },
    {
      "inputs": [],
      "name": "proxiableUUID",
      "outputs": [
        {
          "internalType": "bytes32",
          "name": "",
          "type": "bytes32"
        }
      ],
      "stateMutability": "view",
      "type": "function"
    },
    {
      "inputs": [
        {
          "internalType": "address",
          "name": "tokenA",
          "type": "address"
        },
        {
          "internalType": "address",
          "name": "tokenB",
          "type": "address"
        },
        {
          "internalType": "uint256",
          "name": "liquidity",
          "type": "uint256"
        },
        {
          "internalType": "uint256",
          "name": "amountAMin",
          "type": "uint256"
        },
        {
          "internalType": "uint256",
          "name": "amountBMin",
          "type": "uint256"
        },
        {
          "internalType": "uint256",
          "name": "deadline",
          "type": "uint256"
        }
      ],
      "name": "removeLiquidityV1",
      "outputs": [
        {
          "internalType": "uint256",
          "name": "amountA",
          "type": "uint256"
        },
        {
          "internalType": "uint256",
          "name": "amountB",
          "type": "uint256"
        }
      ],
      "stateMutability": "nonpayable",
      "type": "function"
    },
    {
      "inputs": [
        {
          "internalType": "address",
          "name": "token",
          "type": "address"
        },
        {
          "internalType": "uint256",
          "name": "liquidity",
          "type": "uint256"
        },
        {
          "internalType": "uint256",
          "name": "amountTokenMin",
          "type": "uint256"
        },
        {
          "internalType": "uint256",
          "name": "amountHBARMin",
          "type": "uint256"
        },
        {
          "internalType": "uint256",
          "name": "deadline",
          "type": "uint256"
        }
      ],
      "name": "removeLiquidityV1ETH",
      "outputs": [
        {
          "internalType": "uint256",
          "name": "amountToken",
          "type": "uint256"
        },
        {
          "internalType": "uint256",
          "name": "amountHBAR",
          "type": "uint256"
        }
      ],
      "stateMutability": "nonpayable",
      "type": "function"
    },
    {
      "inputs": [],
      "name": "rewardVault",
      "outputs": [
        {
          "internalType": "address",
          "name": "",
          "type": "address"
        }
      ],
      "stateMutability": "view",
      "type": "function"
    },
    {
      "inputs": [
        {
          "internalType": "address",
          "name": "newGovernance",
          "type": "address"
        }
      ],
      "name": "setGovernanceAddress",
      "outputs": [],
      "stateMutability": "nonpayable",
      "type": "function"
    },
    {
      "inputs": [
        {
          "internalType": "address",
          "name": "_lpModule",
          "type": "address"
        }
      ],
      "name": "setLPManager",
      "outputs": [],
      "stateMutability": "nonpayable",
      "type": "function"
    },
    {
      "inputs": [
        {
          "internalType": "address",
          "name": "_rewardVault",
          "type": "address"
        }
      ],
      "name": "setRewardVault",
      "outputs": [],
      "stateMutability": "nonpayable",
      "type": "function"
    },
    {
      "inputs": [
        {
          "internalType": "address",
          "name": "stethToken",
          "type": "address"
        }
      ],
      "name": "setStethToken",
      "outputs": [],
      "stateMutability": "nonpayable",
      "type": "function"
    },
    {
      "inputs": [
        {
          "internalType": "address",
          "name": "treasury",
          "type": "address"
        }
      ],
      "name": "setTreasury",
      "outputs": [],
      "stateMutability": "nonpayable",
      "type": "function"
    },
    {
      "inputs": [
        {
          "internalType": "uint256",
          "name": "amountIn",
          "type": "uint256"
        },
        {
          "internalType": "uint256",
          "name": "amountOutMinimum",
          "type": "uint256"
        },
        {
          "internalType": "address",
          "name": "swapRouter",
          "type": "address"
        }
      ],
      "name": "swapWhbarToUsdc",
      "outputs": [
        {
          "internalType": "uint256",
          "name": "amountOut",
          "type": "uint256"
        }
      ],
      "stateMutability": "nonpayable",
      "type": "function"
    },
    {
      "inputs": [
        {
          "internalType": "address",
          "name": "to",
          "type": "address"
        },
        {
          "internalType": "uint256",
          "name": "amount",
          "type": "uint256"
        }
      ],
      "name": "transferHbarTo",
      "outputs": [],
      "stateMutability": "nonpayable",
      "type": "function"
    },
    {
      "inputs": [
        {
          "internalType": "uint256",
          "name": "lynxAmount",
          "type": "uint256"
        }
      ],
      "name": "transferLynxForBurn",
      "outputs": [],
      "stateMutability": "nonpayable",
      "type": "function"
    },
    {
      "inputs": [
        {
          "internalType": "uint256",
          "name": "amount",
          "type": "uint256"
        }
      ],
      "name": "transferWhbarToLpManager",
      "outputs": [
        {
          "internalType": "uint256",
          "name": "",
          "type": "uint256"
        }
      ],
      "stateMutability": "nonpayable",
      "type": "function"
    },
    {
      "inputs": [
        {
          "internalType": "uint256",
          "name": "hbarRatio",
          "type": "uint256"
        },
        {
          "internalType": "uint256",
          "name": "wbtcRatio",
          "type": "uint256"
        },
        {
          "internalType": "uint256",
          "name": "usdcRatio",
          "type": "uint256"
        },
        {
          "internalType": "uint256",
          "name": "wethRatio",
          "type": "uint256"
        },
        {
          "internalType": "uint256",
          "name": "xsauceRatio",
          "type": "uint256"
        }
      ],
      "name": "updateRatios",
      "outputs": [],
      "stateMutability": "nonpayable",
      "type": "function"
    },
    {
      "inputs": [
        {
          "internalType": "address",
          "name": "newImplementation",
          "type": "address"
        },
        {
          "internalType": "bytes",
          "name": "data",
          "type": "bytes"
        }
      ],
      "name": "upgradeToAndCall",
      "outputs": [],
      "stateMutability": "payable",
      "type": "function"
    },
    {
      "inputs": [
        {
          "internalType": "address",
          "name": "token",
          "type": "address"
        },
        {
          "internalType": "uint256",
          "name": "amount",
          "type": "uint256"
        }
      ],
      "name": "withdrawFromLpManager",
      "outputs": [
        {
          "internalType": "uint256",
          "name": "",
          "type": "uint256"
        }
      ],
      "stateMutability": "nonpayable",
      "type": "function"
    },
    {
      "inputs": [
        {
          "internalType": "uint256",
          "name": "lynxAmount",
          "type": "uint256"
        }
      ],
      "name": "withdrawUnderlyingTokens",
      "outputs": [],
      "stateMutability": "nonpayable",
      "type": "function"
    },
    {
      "stateMutability": "payable",
      "type": "receive"
    }
  ],
  "bytecode": "0x60a060405230608052603b600a556001600b819055601e600c55600d556009600e5534801561002d57600080fd5b50608051615ba16200005860003960008181613ea801528181613ed1015261402e0152615ba16000f3fe6080604052600436106103235760003560e01c8062332e481461032f5780630ba9898c146103a55780630f0aeb8d146103c757806310ca0bce146103ea578063146278341461040157806314b8f6711461042e5780631bf5ae0c146104435780631d9b0aa9146104595780631ec65c361461048057806323f15338146104a0578063275fe283146104db5780632a0acc6a146104f15780632b76eee2146105115780632d2c5565146105315780632ed413841461055157806330cd3aa21461057157806333f2eba51461059157806333f57d6e146105b1578063344dd6e4146105d157806337d277d4146105f157806339bff4c7146106115780633a2c67771461063f57806342966c681461065f578063462ef0fa1461067f5780634924190c146106945780634f1ef286146106aa57806352d1902d146106bd57806356c6b0cb146106d257806356cbaaba146106f25780635af91dab146107125780635ea4a9fd1461067f578063630eb8ab1461075957806363ec8bfa1461076e5780636f6e42771461078e5780637bd82c69146107ae5780638125dd10146107c15780638283b4bf146107e15780638f8f6c01146108015780638f9f8b011461081757806395489c701461084857806397017e041461086857806397dd850d146108885780639b5b24fa146108a95780639f6b84a6146108bc578063a25afced146108dc578063a534733b146108fc578063ab4533431461091c578063ad3cb1cc14610932578063ae96ccd914610970578063b8392a8414610990578063b963fc0c146109b0578063bc3574d4146109d0578063bc4a8bc6146109f0578063c1419def14610459578063c78f3f7614610a10578063ccca46d214610a30578063cd119f2b14610a50578063cfc1625414610a70578063d08aef7c1461067f578063d40b468a14610a90578063e1e9957614610ab0578063e918d3c814610ad0578063ea7fe2b214610af0578063ef96184a14610b10578063f0f4426014610b25578063f41d86f414610b45578063f6feb58214610b65578063f893218814610b87578063fa56927414610ba7578063faf7a1c414610bc7578063fd1e592614610bdd57600080fd5b3661032a57005b600080fd5b34801561033b57600080fd5b5061034f61034a366004614bb6565b610bfd565b604080516001600160a01b03978816815296909516602087015262ffffff90931693850193909352600290810b60608501529190910b60808301526001600160801b031660a082015260c0015b60405180910390f35b6103b86103b3366004614bfc565b610cb2565b60405161039c93929190614c40565b3480156103d357600080fd5b506103dc600181565b60405190815260200161039c565b3480156103f657600080fd5b506103ff610dd5565b005b34801561040d57600080fd5b50600754610421906001600160a01b031681565b60405161039c9190614c56565b34801561043a57600080fd5b506103dc6112b3565b34801561044f57600080fd5b506103dc600b5481565b34801561046557600080fd5b5061046e600681565b60405160ff909116815260200161039c565b34801561048c57600080fd5b50601754610421906001600160a01b031681565b6104b36104ae366004614c6a565b611348565b604080519485526001600160801b03909316602085015291830152606082015260800161039c565b3480156104e757600080fd5b506103dc600e5481565b3480156104fd57600080fd5b50600654610421906001600160a01b031681565b34801561051d57600080fd5b506103ff61052c366004614c83565b6116f5565b34801561053d57600080fd5b50600854610421906001600160a01b031681565b34801561055d57600080fd5b50600254610421906001600160a01b031681565b34801561057d57600080fd5b50601954610421906001600160a01b031681565b34801561059d57600080fd5b506103b86105ac366004614cbe565b6117d8565b3480156105bd57600080fd5b506103ff6105cc366004614bb6565b611924565b3480156105dd57600080fd5b506103ff6105ec366004614d20565b611939565b3480156105fd57600080fd5b50600454610421906001600160a01b031681565b34801561061d57600080fd5b5061063161062c366004614dd3565b611bef565b60405161039c929190614e2c565b34801561064b57600080fd5b50601854610421906001600160a01b031681565b34801561066b57600080fd5b506103ff61067a366004614bb6565b611d2b565b34801561068b57600080fd5b5061046e600881565b3480156106a057600080fd5b506103dc600a5481565b6103ff6106b8366004614e80565b611d4f565b3480156106c957600080fd5b506103dc611d6e565b3480156106de57600080fd5b506103ff6106ed366004614f27565b611d8b565b3480156106fe57600080fd5b50601054610421906001600160a01b031681565b34801561071e57600080fd5b50610727611e8d565b60408051951515865293151560208601529115159284019290925290151560608301521515608082015260a00161039c565b34801561076557600080fd5b506103dc606481565b34801561077a57600080fd5b50610631610789366004614bfc565b612196565b34801561079a57600080fd5b506103dc6107a9366004614f53565b6122b0565b3480156107ba57600080fd5b50476103dc565b3480156107cd57600080fd5b506103ff6107dc366004614f8c565b6125aa565b3480156107ed57600080fd5b506106316107fc366004614fcc565b612627565b34801561080d57600080fd5b506103dc600c5481565b34801561082357600080fd5b50610837610832366004614bb6565b612776565b60405161039c95949392919061502a565b34801561085457600080fd5b506103ff610863366004614bb6565b611d46565b34801561087457600080fd5b506103ff610883366004614f8c565b6128c5565b34801561089457600080fd5b50600a54600b54600c54600d54600e54610837565b6103ff6108b7366004614c83565b612912565b3480156108c857600080fd5b506103dc6108d7366004614bb6565b61293b565b3480156108e857600080fd5b506106316108f736600461504d565b612b3e565b34801561090857600080fd5b506103ff610917366004614f8c565b612c5c565b34801561092857600080fd5b506103dc60095481565b34801561093e57600080fd5b50610963604051806040016040528060058152602001640352e302e360dc1b81525081565b60405161039c91906150ea565b34801561097c57600080fd5b506103ff61098b366004614f8c565b612cd0565b34801561099c57600080fd5b50600554610421906001600160a01b031681565b3480156109bc57600080fd5b506103ff6109cb366004614f8c565b612da9565b3480156109dc57600080fd5b506103ff6109eb366004614bb6565b612e99565b3480156109fc57600080fd5b50600f54610421906001600160a01b031681565b348015610a1c57600080fd5b506103ff610a2b3660046150fd565b612f42565b348015610a3c57600080fd5b506103ff610a4b366004614c83565b612fc6565b348015610a5c57600080fd5b506103ff610a6b366004614f27565b612ff1565b348015610a7c57600080fd5b506103ff610a8b366004614f8c565b613078565b348015610a9c57600080fd5b50601a54610421906001600160a01b031681565b348015610abc57600080fd5b50600154610421906001600160a01b031681565b348015610adc57600080fd5b506103ff610aeb366004614f27565b6130f5565b348015610afc57600080fd5b50610631610b0b366004615159565b6131b1565b348015610b1c57600080fd5b506103ff6132c8565b348015610b3157600080fd5b506103ff610b40366004614f8c565b61335b565b348015610b5157600080fd5b506103ff610b60366004614bb6565b6133ff565b348015610b7157600080fd5b50610b7a613408565b60405161039c9190615189565b348015610b9357600080fd5b50610837610ba2366004614bb6565b6134a9565b348015610bb357600080fd5b50600354610421906001600160a01b031681565b348015610bd357600080fd5b506103dc600d5481565b348015610be957600080fd5b506103dc610bf8366004614f27565b6135aa565b601954600090819081908190819081906001600160a01b0316610c3157506000945084935083925082915081905080610ca9565b601954604051620665c960e31b8152600481018990526001600160a01b039091169062332e489060240160c060405180830381865afa158015610c78573d6000803e3d6000fd5b505050506040513d601f19601f82011682018060405250810190610c9c91906151ed565b9550955095509550955095505b91939550919395565b600654600090819081906001600160a01b03163314610ce457604051634755657960e01b815260040160405180910390fd5b6019546001600160a01b0316610d0d57604051637a2c444760e01b815260040160405180910390fd5b6019546040516302ea626360e21b81526001600160a01b0390911690630ba9898c903490610d47908c908c908c908c908c90600401615266565b60606040518083038185885af1158015610d65573d6000803e3d6000fd5b50505050506040513d601f19601f82011682018060405250810190610d8a9190615294565b60405192955090935091506000906001600160a01b038a1690600080516020615b4c83398151915290610dc290879087908790614c40565b60405180910390a3955095509592505050565b6000805460015460405163248a35ef60e11b81526001600160a01b03928316926349146bde92610e0d923092909116906004016152c2565b6020604051808303816000875af1158015610e2c573d6000803e3d6000fd5b505050506040513d601f19601f82011682018060405250810190610e5091906152ee565b600154604051919250600080516020615acc83398151915291610e7e916001600160a01b0316908490615309565b60405180910390a16000805460025460405163248a35ef60e11b81526001600160a01b03928316926349146bde92610ebe923092909116906004016152c2565b6020604051808303816000875af1158015610edd573d6000803e3d6000fd5b505050506040513d601f19601f82011682018060405250810190610f0191906152ee565b600254604051919250600080516020615acc83398151915291610f2f916001600160a01b0316908490615309565b60405180910390a16000805460035460405163248a35ef60e11b81526001600160a01b03928316926349146bde92610f6f923092909116906004016152c2565b6020604051808303816000875af1158015610f8e573d6000803e3d6000fd5b505050506040513d601f19601f82011682018060405250810190610fb291906152ee565b600354604051919250600080516020615acc83398151915291610fe0916001600160a01b0316908490615309565b60405180910390a1600080546004805460405163248a35ef60e11b81526001600160a01b03938416936349146bde9361101e933093921691016152c2565b6020604051808303816000875af115801561103d573d6000803e3d6000fd5b505050506040513d601f19601f8201168201806040525081019061106191906152ee565b600454604051919250600080516020615acc8339815191529161108f916001600160a01b0316908490615309565b60405180910390a16000805460055460405163248a35ef60e11b81526001600160a01b03928316926349146bde926110cf923092909116906004016152c2565b6020604051808303816000875af11580156110ee573d6000803e3d6000fd5b505050506040513d601f19601f8201168201806040525081019061111291906152ee565b600554604051919250600080516020615acc83398151915291611140916001600160a01b0316908490615309565b60405180910390a160008054600f5460405163248a35ef60e11b81526001600160a01b03928316926349146bde92611180923092909116906004016152c2565b6020604051808303816000875af115801561119f573d6000803e3d6000fd5b505050506040513d601f19601f820116820180604052508101906111c391906152ee565b600f54604051919250600080516020615acc833981519152916111f1916001600160a01b0316908490615309565b60405180910390a16000805460175460405163248a35ef60e11b81526001600160a01b03928316926349146bde92611231923092909116906004016152c2565b6020604051808303816000875af1158015611250573d6000803e3d6000fd5b505050506040513d601f19601f8201168201806040525081019061127491906152ee565b601754604051919250600080516020615acc833981519152916112a2916001600160a01b0316908490615309565b60405180910390a150505050505050565b6019546000906001600160a01b03166112cc5750600090565b601960009054906101000a90046001600160a01b03166001600160a01b03166314b8f6716040518163ffffffff1660e01b8152600401602060405180830381865afa15801561131f573d6000803e3d6000fd5b505050506040513d601f19601f820116820180604052508101906113439190615325565b905090565b6006546000908190819081906001600160a01b0316331461137c57604051634755657960e01b815260040160405180910390fd5b6019546001600160a01b03166113a557604051637a2c444760e01b815260040160405180910390fd5b6010546001600160a01b03166113be6020870187614f8c565b6001600160a01b031614611463576000546001600160a01b031663e1f21c676113ea6020880188614f8c565b6019546040516001600160e01b031960e085901b16815261141e92916001600160a01b03169060a08b01359060040161533e565b6020604051808303816000875af115801561143d573d6000803e3d6000fd5b505050506040513d601f19601f8201168201806040525081019061146191906152ee565b505b6010546001600160a01b031661147f6040870160208801614f8c565b6001600160a01b031614611527576000546001600160a01b031663e1f21c676114ae6040880160208901614f8c565b6019546040516001600160e01b031960e085901b1681526114e292916001600160a01b03169060c08b01359060040161533e565b6020604051808303816000875af1158015611501573d6000803e3d6000fd5b505050506040513d601f19601f8201168201806040525081019061152591906152ee565b505b6010546305f5e100906001600160a01b03166115466020880188614f8c565b6001600160a01b0316036115655761156260a087013582615378565b90505b6010546001600160a01b03166115816040880160208901614f8c565b6001600160a01b0316036115a05761159d60c087013582615378565b90505b60195460405163047e2a6760e31b81526001600160a01b03909116906323f153389083906115d2908a906004016153a1565b60806040518083038185885af11580156115f0573d6000803e3d6000fd5b50505050506040513d601f19601f82011682018060405250810190611615919061545c565b92975090955093509150847f450ca8c1ab6c9dbb79993eec0486b9268a52f2f9d60a90e3f52460df537895dd61164e6020890189614f8c565b61165e60408a0160208b01614f8c565b61166e60608b0160408c0161549a565b61167e60808c0160608d016154b7565b61168e60a08d0160808e016154b7565b604080516001600160a01b03968716815294909516602085015262ffffff9290921683850152600290810b60608401520b60808201526001600160801b03881660a082015260c0810187905260e081018690529051908190036101000190a2509193509193565b6007546001600160a01b03163314611720576040516354348f0360e01b815260040160405180910390fd5b6007546001600160a01b0316611749576040516351ab837960e01b815260040160405180910390fd5b611752856136d8565b61175b846136d8565b611764836136d8565b61176d826136d8565b611776816136d8565b600a859055600b849055600c839055600d829055600e81905560405133907f0ce7c4b1e39fa405cba42b3c77a993181be9c6c03d55a7ea7698e0aad0b3edfa906117c9908890889088908890889061502a565b60405180910390a25050505050565b600654600090819081906001600160a01b0316331461180a57604051634755657960e01b815260040160405180910390fd5b6019546001600160a01b031661183357604051637a2c444760e01b815260040160405180910390fd5b6019546040516333f2eba560e01b81526001600160a01b038c811660048301528b81166024830152604482018b9052606482018a90526084820189905260a4820188905260c48201879052909116906333f2eba59060e4016060604051808303816000875af11580156118aa573d6000803e3d6000fd5b505050506040513d601f19601f820116820180604052508101906118ce9190615294565b809350819450829550505050886001600160a01b03168a6001600160a01b0316600080516020615b4c83398151915285858560405161190f93929190614c40565b60405180910390a39750975097945050505050565b61192d81613708565b61193681613752565b50565b60006119436138b8565b805490915060ff600160401b82041615906001600160401b031660008115801561196a5750825b90506000826001600160401b031660011480156119865750303b155b905081158015611994575080155b156119b25760405163f92ee8a960e01b815260040160405180910390fd5b84546001600160401b031916600117855583156119db57845460ff60401b1916600160401b1785555b6101676000806101000a8154816001600160a01b0302191690836001600160a01b031602179055508c600160006101000a8154816001600160a01b0302191690836001600160a01b031602179055508b600260006101000a8154816001600160a01b0302191690836001600160a01b031602179055508a600360006101000a8154816001600160a01b0302191690836001600160a01b0316021790555089600460006101000a8154816001600160a01b0302191690836001600160a01b0316021790555088600560006101000a8154816001600160a01b0302191690836001600160a01b0316021790555087600f60006101000a8154816001600160a01b0302191690836001600160a01b0316021790555062120f46601760006101000a8154816001600160a01b0302191690836001600160a01b031602179055508d600660006101000a8154816001600160a01b0302191690836001600160a01b0316021790555086600860006101000a8154816001600160a01b0302191690836001600160a01b031602179055506008600a611b7391906155b8565b611b7d90876155c7565b6009908155603b600a556001600b819055601e600c55600d55600e558315611bdf57845460ff60401b19168555604051600181527fc7f505b2f371ae2175ee4913f4499e1f2633a7b5936321eed1cdaeb6115181d29060200160405180910390a15b5050505050505050505050505050565b60065460009081906001600160a01b03163314611c1f57604051634755657960e01b815260040160405180910390fd5b6019546001600160a01b0316611c4857604051637a2c444760e01b815260040160405180910390fd5b6019546040516339bff4c760e01b81526001600160a01b038a81166004830152898116602483015260448201899052606482018890526084820187905260a48201869052909116906339bff4c79060c40160408051808303816000875af1158015611cb7573d6000803e3d6000fd5b505050506040513d601f19601f82011682018060405250810190611cdb91906155de565b8092508193505050866001600160a01b0316886001600160a01b0316600080516020615b2c83398151915284848a604051611d1893929190614c40565b60405180910390a3965096945050505050565b611d3481613708565b611d3d81613752565b611d46816138e1565b61193681613d12565b611d57613e9d565b611d6082613f44565b611d6a8282613f6f565b5050565b6000611d78614023565b50600080516020615aec83398151915290565b6006546001600160a01b03163314611db657604051634755657960e01b815260040160405180910390fd5b6019546001600160a01b0316611ddf57604051637a2c444760e01b815260040160405180910390fd5b6019546040516356c6b0cb60e01b81526001600160a01b03909116906356c6b0cb90611e119085908590600401615602565b600060405180830381600087803b158015611e2b57600080fd5b505af1158015611e3f573d6000803e3d6000fd5b50506019546040518481526001600160a01b03918216935090851691507f7c0343d5d14b1a04e6d7d18d951252b4259e0d3c71bad5d3fefd9c0df3c425819060200160405180910390a35050565b60008054600154604051630d9f324960e31b81528392839283928392839283926001600160a01b0392831692636cf9924892611ed1923092909116906004016152c2565b60408051808303816000875af1158015611eef573d6000803e3d6000fd5b505050506040513d601f19601f82011682018060405250810190611f13919061561b565b91509150601660030b8260070b148015611f2a5750805b60008054600254604051630d9f324960e31b8152939a50919283926001600160a01b0392831692636cf9924892611f6792309216906004016152c2565b60408051808303816000875af1158015611f85573d6000803e3d6000fd5b505050506040513d601f19601f82011682018060405250810190611fa9919061561b565b91509150601660030b8260070b148015611fc05750805b60008054600354604051630d9f324960e31b8152939b50919283926001600160a01b0392831692636cf9924892611ffd92309216906004016152c2565b60408051808303816000875af115801561201b573d6000803e3d6000fd5b505050506040513d601f19601f8201168201806040525081019061203f919061561b565b91509150601660030b8260070b1480156120565750805b6000805460048054604051630d9f324960e31b8152949d50929384936001600160a01b0393841693636cf992489361209493309390921691016152c2565b60408051808303816000875af11580156120b2573d6000803e3d6000fd5b505050506040513d601f19601f820116820180604052508101906120d6919061561b565b91509150601660030b8260070b1480156120ed5750805b60008054600554604051630d9f324960e31b8152939d50919283926001600160a01b0392831692636cf992489261212a92309216906004016152c2565b60408051808303816000875af1158015612148573d6000803e3d6000fd5b505050506040513d601f19601f8201168201806040525081019061216c919061561b565b91509150601660030b8260070b1480156121835750805b9a50505050505050505050509091929394565b60065460009081906001600160a01b031633146121c657604051634755657960e01b815260040160405180910390fd5b6019546001600160a01b03166121ef57604051637a2c444760e01b815260040160405180910390fd5b6019546040516331f645fd60e11b81526001600160a01b03909116906363ec8bfa90612227908a908a908a908a908a90600401615266565b60408051808303816000875af1158015612245573d6000803e3d6000fd5b505050506040513d601f19601f8201168201806040525081019061226991906155de565b60405191935091506000906001600160a01b03891690600080516020615b2c8339815191529061229e90869086908c90614c40565b60405180910390a39550959350505050565b6006546000906001600160a01b031633146122de57604051634755657960e01b815260040160405180910390fd5b6001600160a01b03821615806122fd57506010546001600160a01b0316155b8061231157506003546001600160a01b0316155b1561232f576040516381c609f760e01b815260040160405180910390fd5b6010546040516370a0823160e01b81526000916001600160a01b0316906370a0823190612360903090600401614c56565b602060405180830381865afa15801561237d573d6000803e3d6000fd5b505050506040513d601f19601f820116820180604052508101906123a19190615325565b9050808511156123af578094505b846000036123c15760009150506125a3565b6000805460105460405163e1f21c6760e01b81526001600160a01b039283169263e1f21c67926123fa9291169088908b9060040161533e565b6020604051808303816000875af1158015612419573d6000803e3d6000fd5b505050506040513d601f19601f8201168201806040525081019061243d91906152ee565b9050600781900b60161461247a5760105460405163e5a0a42f60e01b8152612471916001600160a01b031690600401614c56565b60405180910390fd5b6010546003546040516001600160601b0319606093841b8116602083015261017760ea1b60348301529190921b166037820152600090604b0160408051601f1981840301815260a08301825280835230602084015292506000919081016124e342610258615378565b8152602001898152602001888152509050856001600160a01b031663c04b8d59826040518263ffffffff1660e01b81526004016125209190615647565b6020604051808303816000875af115801561253f573d6000803e3d6000fd5b505050506040513d601f19601f820116820180604052508101906125639190615325565b94507f64a3d66bc49e313d032037636fe3b298a7067c97a2bf16eff16b43b6dfca58088886604051612596929190614e2c565b60405180910390a1505050505b9392505050565b6006546001600160a01b031633146125d557604051634755657960e01b815260040160405180910390fd5b601880546001600160a01b038381166001600160a01b0319831681179093556040519116919082907f50c4b70d6930a0ddb31141c9f3d782f76f37a85f858722d60d5b0203939cbfa390600090a35050565b60065460009081906001600160a01b0316331461265757604051634755657960e01b815260040160405180910390fd5b6019546001600160a01b031661268057604051637a2c444760e01b815260040160405180910390fd5b601954604051638283b4bf60e01b8152600481018a90526001600160801b038916602482015260448101889052606481018790526084810186905284151560a48201526001600160a01b0390911690638283b4bf9060c40160408051808303816000875af11580156126f6573d6000803e3d6000fd5b505050506040513d601f19601f8201168201806040525081019061271a91906155de565b604080516001600160801b038b16815260208101849052908101829052919350915088907f609864c23f392acc2733d4bf6c037a2af5a5ab8710a801f0fb46263a09fcff099060600160405180910390a2965096945050505050565b600080600080600080600a80548861278e91906155c7565b61279c906305f5e1006155c7565b6127a6919061569f565b905060008060095411156127e7576009546000906127c48a476155c7565b6127ce919061569f565b9050828111156127e5576127e283826156c1565b91505b505b6127f18183615378565b9650620f42406128036008600a6155b8565b600b54612810908b6155c7565b61281a91906155c7565b612824919061569f565b955060646128346006600a6155b8565b600c54612841908b6155c7565b61284b91906155c7565b612855919061569f565b9450620186a06128676008600a6155b8565b600d54612874908b6155c7565b61287e91906155c7565b612888919061569f565b9350600a6128976006826155b8565b600e546128a4908b6155c7565b6128ae91906155c7565b6128b8919061569f565b9250505091939590929450565b6006546001600160a01b031633146128f057604051634755657960e01b815260040160405180910390fd5b601980546001600160a01b0319166001600160a01b0392909216919091179055565b61291f858585858561406c565b61292b8484848461434e565b612934856146b0565b5050505050565b6006546000906001600160a01b0316331461296957604051634755657960e01b815260040160405180910390fd5b6010546001600160a01b0316158061298a57506019546001600160a01b0316155b156129a857604051637a2c444760e01b815260040160405180910390fd5b6010546040516370a0823160e01b81526000916001600160a01b0316906370a08231906129d9903090600401614c56565b602060405180830381865afa1580156129f6573d6000803e3d6000fd5b505050506040513d601f19601f82011682018060405250810190612a1a9190615325565b905080831115612a28578092505b82600003612a395750600092915050565b6000805460105460195460405163eca3691760e01b81526001600160a01b039384169363eca3691793612a7a93908216923092909116908a906004016156d4565b6020604051808303816000875af1158015612a99573d6000803e3d6000fd5b505050506040513d601f19601f82011682018060405250810190612abd91906152ee565b9050600781900b601614612af15760105460405163e5a0a42f60e01b8152612471916001600160a01b031690600401614c56565b6019546040518581526001600160a01b03909116907f2158d1a1c00f6b18429a91d8cd71e24aca7c85d4cb90f16a0e617e586cdbca299060200160405180910390a283925050505b919050565b60065460009081906001600160a01b03163314612b6e57604051634755657960e01b815260040160405180910390fd5b6019546001600160a01b0316612b9757604051637a2c444760e01b815260040160405180910390fd5b60195460405163a25afced60e01b81526004810189905260248101889052604481018790526064810186905284151560848201526001600160a01b039091169063a25afced9060a40160408051808303816000875af1158015612bfe573d6000803e3d6000fd5b505050506040513d601f19601f82011682018060405250810190612c2291906155de565b604051919350915087907f65e9edd29606a1893dd4b013742c8e0349afb16fec36164c51f1b85946fa655890600090a29550959350505050565b6006546001600160a01b03163314612c8757604051634755657960e01b815260040160405180910390fd5b6001600160a01b038116612cae5760405163b339effd60e01b815260040160405180910390fd5b600f80546001600160a01b0319166001600160a01b0392909216919091179055565b6006546001600160a01b03163314612cfb57604051634755657960e01b815260040160405180910390fd5b6001600160a01b038116612d22576040516381c609f760e01b815260040160405180910390fd5b6019546001600160a01b0316612d4b57604051637a2c444760e01b815260040160405180910390fd5b60195460405163ae96ccd960e01b81526001600160a01b039091169063ae96ccd990612d7b908490600401614c56565b600060405180830381600087803b158015612d9557600080fd5b505af1158015612934573d6000803e3d6000fd5b6006546001600160a01b03163314612dd457604051634755657960e01b815260040160405180910390fd5b6019546001600160a01b0316612dfd57604051637a2c444760e01b815260040160405180910390fd5b601954604051632e58ff0360e21b81526001600160a01b039091169063b963fc0c90612e2d908490600401614c56565b600060405180830381600087803b158015612e4757600080fd5b505af1158015612e5b573d6000803e3d6000fd5b505050507fabf7734ce1fd90913372484502742ef5314d7edea025eeb32b74fd9213fe81c581604051612e8e9190614c56565b60405180910390a150565b6006546001600160a01b03163314612ec457604051634755657960e01b815260040160405180910390fd5b80600003612ee55760405163c16f3a9360e01b815260040160405180910390fd5b600954612ef46008600a6155b8565b612efe90836155c7565b60098190556040517f04bd98c2cc6264f666ddbdf1d13fd34d65707d91800e2350947102b7045f6e5a91612f36918491908690614c40565b60405180910390a15050565b6006546001600160a01b03163314612f6d57604051634755657960e01b815260040160405180910390fd5b6019546001600160a01b0316612f9657604051637a2c444760e01b815260040160405180910390fd5b601080546001600160a01b039384166001600160a01b031991821617909155601a80549290931691161790555050565b6006546001600160a01b0316331461174957604051634755657960e01b815260040160405180910390fd5b6018546001600160a01b0316331461301c57604051632f1520d360e01b815260040160405180910390fd5b8047101561303d57604051635624c13160e01b815260040160405180910390fd5b6040516001600160a01b0383169082156108fc029083906000818181858888f19350505050158015613073573d6000803e3d6000fd5b505050565b6006546001600160a01b031633146130a357604051634755657960e01b815260040160405180910390fd5b600780546001600160a01b038381166001600160a01b0319831681179093556040519116919082907f73666e452d96d561d08d04f6c3f125bc9ae8f7080f8df2c5160e2967f8b1e4a790600090a35050565b6006546001600160a01b0316331461312057604051634755657960e01b815260040160405180910390fd5b6019546001600160a01b031661314957604051637a2c444760e01b815260040160405180910390fd5b601954604051631d231a7960e31b81526001600160a01b039091169063e918d3c89061317b9085908590600401615602565b600060405180830381600087803b15801561319557600080fd5b505af11580156131a9573d6000803e3d6000fd5b505050505050565b60065460009081906001600160a01b031633146131e157604051634755657960e01b815260040160405180910390fd5b6019546001600160a01b031661320a57604051637a2c444760e01b815260040160405180910390fd5b60195460405163753ff15960e11b81526004810186905284151560248201526001600160a01b039091169063ea7fe2b29060440160408051808303816000875af115801561325c573d6000803e3d6000fd5b505050506040513d601f19601f8201168201806040525081019061328091906155de565b604051919350915084907fbc6bf21bce0e0158ccb9a617797aedce0dd66a7de7b0effc22acc107622846c7906132b99085908590614e2c565b60405180910390a29250929050565b6019546001600160a01b03166132f157604051637a2c444760e01b815260040160405180910390fd5b601960009054906101000a90046001600160a01b03166001600160a01b031663ef96184a6040518163ffffffff1660e01b8152600401600060405180830381600087803b15801561334157600080fd5b505af1158015613355573d6000803e3d6000fd5b50505050565b6006546001600160a01b0316331461338657604051634755657960e01b815260040160405180910390fd5b6001600160a01b0381166133ad57604051634b62f01360e01b815260040160405180910390fd5b600880546001600160a01b038381166001600160a01b0319831681179093556040519116919082907f4ab5be82436d353e61ca18726e984e561f5c1cc7c6d38b29d2553c790434705a90600090a35050565b611936816138e1565b6019546060906001600160a01b031661342e575060408051600081526020810190915290565b601960009054906101000a90046001600160a01b03166001600160a01b031663f6feb5826040518163ffffffff1660e01b8152600401600060405180830381865afa158015613481573d6000803e3d6000fd5b505050506040513d6000823e601f3d908101601f191682016040526113439190810190615724565b6000806000806000600a8054876134c091906155c7565b6134ce906305f5e1006155c7565b6134d8919061569f565b9450620f42406134ea6008600a6155b8565b600b546134f790896155c7565b61350191906155c7565b61350b919061569f565b9350606461351b6006600a6155b8565b600c5461352890896155c7565b61353291906155c7565b61353c919061569f565b9250620186a061354e6008600a6155b8565b600d5461355b90896155c7565b61356591906155c7565b61356f919061569f565b9150600a61357e6006826155b8565b600e5461358b90896155c7565b61359591906155c7565b61359f919061569f565b905091939590929450565b6006546000906001600160a01b031633146135d857604051634755657960e01b815260040160405180910390fd5b6019546001600160a01b031661360157604051637a2c444760e01b815260040160405180910390fd5b6001600160a01b038316613628576040516381c609f760e01b815260040160405180910390fd5b60195460405163d23d116160e01b81526001600160a01b039091169063d23d11619061365a9086908690600401615602565b600060405180830381600087803b15801561367457600080fd5b505af1158015613688573d6000803e3d6000fd5b50505050826001600160a01b03167f7174ec96d6d1ed531f2b09c87407d768be8019b288904dccaca0387444ce4c32836040516136c791815260200190565b60405180910390a250805b92915050565b60018110806136e75750606481115b156119365760405163046a85ef60e31b815260048101829052602401612471565b806000036137295760405163162908e360e11b815260040160405180910390fd5b6001546001600160a01b031661193657604051634b62f01360e01b815260040160405180910390fd5b60006137606008600a6155b8565b61376a90836155c7565b9050336001600160a01b03167f403cc33b6c1798063e78510f334f7390e07f1d3e890e8e07ed3f5107f8c5095583836040516137a7929190614e2c565b60405180910390a26000805460015460085460405163eca3691760e01b81526001600160a01b039384169363eca36917936137f0939082169233929091169088906004016156d4565b6020604051808303816000875af115801561380f573d6000803e3d6000fd5b505050506040513d601f19601f8201168201806040525081019061383391906152ee565b604051600782900b8152909150600080516020615b0c8339815191529060200160405180910390a1600781900b601614613073576040805163016146c160e61b8152600481019190915260196044820152784c594e58207472616e7366657220746f20747265617375727960381b6064820152600782900b6024820152608401612471565b6000807ff0c57e16840df040f15088dc2f81fe391c3923bec73e23a9662efc9c229c6a006136d2565b6000806000806000306001600160a01b031663f8932188876040518263ffffffff1660e01b815260040161391791815260200190565b60a060405180830381865afa158015613934573d6000803e3d6000fd5b505050506040513d601f19601f8201168201806040525081019061395891906157b9565b94509450945094509450600080851115613a22576000805460025460405163eca3691760e01b81526001600160a01b039283169263eca36917926139a792911690309033908c906004016156d4565b6020604051808303816000875af11580156139c6573d6000803e3d6000fd5b505050506040513d601f19601f820116820180604052508101906139ea91906152ee565b9050600781900b601614613a13578060405163016146c160e61b815260040161247191906157f9565b81613a1d8161582b565b925050505b8315613ade576000805460035460405163eca3691760e01b81526001600160a01b039283169263eca3691792613a6392911690309033908b906004016156d4565b6020604051808303816000875af1158015613a82573d6000803e3d6000fd5b505050506040513d601f19601f82011682018060405250810190613aa691906152ee565b9050600781900b601614613acf578060405163016146c160e61b81526004016124719190615844565b81613ad98161582b565b925050505b8215613b9a57600080546004805460405163eca3691760e01b81526001600160a01b039384169363eca3691793613b1f9390911691309133918b91016156d4565b6020604051808303816000875af1158015613b3e573d6000803e3d6000fd5b505050506040513d601f19601f82011682018060405250810190613b6291906152ee565b9050600781900b601614613b8b578060405163016146c160e61b81526004016124719190615876565b81613b958161582b565b925050505b8115613c56576000805460055460405163eca3691760e01b81526001600160a01b039283169263eca3691792613bdb929116903090339089906004016156d4565b6020604051808303816000875af1158015613bfa573d6000803e3d6000fd5b505050506040513d601f19601f82011682018060405250810190613c1e91906152ee565b9050600781900b601614613c47578060405163016146c160e61b815260040161247191906158a8565b81613c518161582b565b925050505b8515613c8b57604051339087156108fc029088906000818181858888f19350505050158015613c89573d6000803e3d6000fd5b505b60405181815233907f26b719d70a86debd0ed77b3212193834c80a8a04e8c8324558783990c7e962d19060200160405180910390a2336001600160a01b03167fb7b092a05b6a278085a77533038698c4effcb2dbe411d23ffc865d82b5ce3f958787878787604051613d0195949392919061502a565b60405180910390a250505050505050565b6000613d206008600a6155b8565b613d2a90836155c7565b60008054600154604080518481526020810191829052636b48868360e11b909152939450919283926001600160a01b039283169263d6910d0692613d789291909116908790602481016158dc565b60408051808303816000875af1158015613d96573d6000803e3d6000fd5b505050506040513d601f19601f82011682018060405250810190613dba9190615943565b60408051600784810b825283900b60208201529294509092507f46285c6253c1ef15a446225627b055b5e4b6f0066c069f8e94d8d93b5a0a49e4910160405180910390a1600782900b601614613e4b576040805163016146c160e61b815260048101919091526009604482015268262ca72c10313ab93760b91b6064820152600783900b6024820152608401612471565b8260096000828254613e5d91906156c1565b909155505060405184815233907f57d01b68e5539ec1220905c69e81dea92bdc6f6fd2f771afd49389d36314a08c9060200160405180910390a250505050565b306001600160a01b037f0000000000000000000000000000000000000000000000000000000000000000161480613f2457507f00000000000000000000000000000000000000000000000000000000000000006001600160a01b0316613f18600080516020615aec833981519152546001600160a01b031690565b6001600160a01b031614155b15613f425760405163703e46dd60e11b815260040160405180910390fd5b565b6006546001600160a01b0316331461193657604051634755657960e01b815260040160405180910390fd5b816001600160a01b03166352d1902d6040518163ffffffff1660e01b8152600401602060405180830381865afa925050508015613fc9575060408051601f3d908101601f19168201909252613fc691810190615325565b60015b613fe85781604051634c9c8ce360e01b81526004016124719190614c56565b600080516020615aec833981519152811461401957604051632a87526960e21b815260048101829052602401612471565b61307383836149f4565b306001600160a01b037f00000000000000000000000000000000000000000000000000000000000000001614613f425760405163703e46dd60e11b815260040160405180910390fd5b8460000361408d5760405163162908e360e11b815260040160405180910390fd5b6001546001600160a01b03166140b657604051634b62f01360e01b815260040160405180910390fd5b6002546001600160a01b03166140df57604051634b62f01360e01b815260040160405180910390fd5b6003546001600160a01b031661410857604051634b62f01360e01b815260040160405180910390fd5b6004546001600160a01b031661413157604051634b62f01360e01b815260040160405180910390fd5b6005546001600160a01b031661415a57604051634b62f01360e01b815260040160405180910390fd5b6000806000806000306001600160a01b0316638f9f8b018b6040518263ffffffff1660e01b815260040161419091815260200190565b60a060405180830381865afa1580156141ad573d6000803e3d6000fd5b505050506040513d601f19601f820116820180604052508101906141d191906157b9565b94509450945094509450843410156142225760405163d5871b2360e01b81526060600480830191909152606482015263242120a960e11b60848201526024810186905234604482015260a401612471565b8389101561426a5760405163d5871b2360e01b815260606004808301919091526064820152635742544360e01b608482015260248101859052604481018a905260a401612471565b828810156142b25760405163d5871b2360e01b815260606004808301919091526064820152635553444360e01b6084820152602481018490526044810189905260a401612471565b818710156142fa5760405163d5871b2360e01b815260606004808301919091526064820152630ae8aa8960e31b6084820152602481018390526044810188905260a401612471565b808610156143425760405163d5871b2360e01b815260606004820152600660648201526558534155434560d01b6084820152602481018290526044810187905260a401612471565b50505050505050505050565b6000805460025460405163eca3691760e01b815283926001600160a01b039081169263eca369179261438c9290911690339030908c906004016156d4565b6020604051808303816000875af11580156143ab573d6000803e3d6000fd5b505050506040513d601f19601f820116820180604052508101906143cf91906152ee565b9050600781900b6016146143f8578060405163016146c160e61b815260040161247191906157f9565b816144028161582b565b6000805460035460405163eca3691760e01b81529396509193506001600160a01b039081169263eca3691792614442921690339030908c906004016156d4565b6020604051808303816000875af1158015614461573d6000803e3d6000fd5b505050506040513d601f19601f8201168201806040525081019061448591906152ee565b9050600781900b6016146144ae578060405163016146c160e61b81526004016124719190615844565b826144b88161582b565b600080546004805460405163eca3691760e01b81529498509294506001600160a01b039182169363eca36917936144f7931691339130918d91016156d4565b6020604051808303816000875af1158015614516573d6000803e3d6000fd5b505050506040513d601f19601f8201168201806040525081019061453a91906152ee565b9050600781900b601614614563578060405163016146c160e61b81526004016124719190615876565b8361456d8161582b565b6000805460055460405163eca3691760e01b81529398509193506001600160a01b039081169263eca36917926145ad921690339030908c906004016156d4565b6020604051808303816000875af11580156145cc573d6000803e3d6000fd5b505050506040513d601f19601f820116820180604052508101906145f091906152ee565b9050600781900b601614614619578060405163016146c160e61b815260040161247191906158a8565b846146238161582b565b6040518181529096503391507ffb6c065aedb9f80db2a7c600754a071d9b16cdee761f37b7ecf1f3e68578b3229060200160405180910390a2336001600160a01b03167ff9f9817d5bc855f9b8119de722524bdeedfd6dd3462e2d702f02150b12018b3e348b8b8b8b60405161469d95949392919061502a565b60405180910390a2505050505050505050565b60006146be6008600a6155b8565b6146c890836155c7565b9050336001600160a01b03167fef8f5be9f6e9b6cafe9795e6972d99452d92fdfca92995050eaa9cbbdcd627dc8383604051614705929190614e2c565b60405180910390a26040805160008082526020820190925281614738565b60608152602001906001900390816147235790505b506000805460015460405163707a02cd60e11b8152939450919283926001600160a01b039283169263e0f4059a9261477a929091169088908890600401615976565b6000604051808303816000875af1158015614799573d6000803e3d6000fd5b505050506040513d6000823e601f3d908101601f191682016040526147c191908101906159f4565b5060408051600784810b825283900b60208201529294509092507feeb8b94f7bf115b59d1437edf60f2f07656a1eb52234a1835d90480777c5762c910160405180910390a1600782900b601614614853576040805163016146c160e61b81526004810191909152600960448201526813165396081b5a5b9d60ba1b6064820152600783900b6024820152608401612471565b83600960008282546148659190615378565b90915550506008546040517f883dd34324c5e33f1ce994b8f1652ab425a78c77305f00a08660b05245ed17b3916148ab916001600160a01b03909116903390889061533e565b60405180910390a16000805460015460085460405163eca3691760e01b81526001600160a01b039384169363eca36917936148f3939082169291169033908b906004016156d4565b6020604051808303816000875af1158015614912573d6000803e3d6000fd5b505050506040513d601f19601f8201168201806040525081019061493691906152ee565b604051600782900b8152909150600080516020615b0c8339815191529060200160405180910390a1600781900b6016146149b7576040805163016146c160e61b815260048101919091526015604482015274262ca72c103a3930b739b332b9103a37903ab9b2b960591b6064820152600782900b6024820152608401612471565b60405186815233907f465927a4840d7c7d6aa087bb368fe25bed2f96a7de450603903e0331dec0dbb59060200160405180910390a2505050505050565b6149fd82614a4a565b6040516001600160a01b038316907fbc7cd75a20ee27fd9adebab32041f755214dbc6bffa90cc0225b39da2e5c2d3b90600090a2805115614a42576130738282614aa6565b611d6a614b1c565b806001600160a01b03163b600003614a775780604051634c9c8ce360e01b81526004016124719190614c56565b600080516020615aec83398151915280546001600160a01b0319166001600160a01b0392909216919091179055565b6060600080846001600160a01b031684604051614ac39190615aaf565b600060405180830381855af49150503d8060008114614afe576040519150601f19603f3d011682016040523d82523d6000602084013e614b03565b606091505b5091509150614b13858383614b3b565b95945050505050565b3415613f425760405163b398979f60e01b815260040160405180910390fd5b606082614b5057614b4b82614b8e565b6125a3565b8151158015614b6757506001600160a01b0384163b155b15614b875783604051639996b31560e01b81526004016124719190614c56565b50806125a3565b805115614b9d57805160208201fd5b60405163d6bda27560e01b815260040160405180910390fd5b600060208284031215614bc857600080fd5b5035919050565b6001600160a01b03169052565b6001600160a01b038116811461193657600080fd5b8035612b3981614bdc565b600080600080600060a08688031215614c1457600080fd5b8535614c1f81614bdc565b97602087013597506040870135966060810135965060800135945092505050565b9283526020830191909152604082015260600190565b6001600160a01b0391909116815260200190565b60006101408284031215614c7d57600080fd5b50919050565b600080600080600060a08688031215614c9b57600080fd5b505083359560208501359550604085013594606081013594506080013592509050565b600080600080600080600060e0888a031215614cd957600080fd5b8735614ce481614bdc565b96506020880135614cf481614bdc565b96999698505050506040850135946060810135946080820135945060a0820135935060c0909101359150565b60008060008060008060008060006101208a8c031215614d3f57600080fd5b8935614d4a81614bdc565b985060208a0135614d5a81614bdc565b975060408a0135614d6a81614bdc565b965060608a0135614d7a81614bdc565b955060808a0135614d8a81614bdc565b945060a08a0135614d9a81614bdc565b935060c08a0135614daa81614bdc565b925060e08a0135614dba81614bdc565b809250506101008a013590509295985092959850929598565b60008060008060008060c08789031215614dec57600080fd5b8635614df781614bdc565b95506020870135614e0781614bdc565b95989597505050506040840135936060810135936080820135935060a0909101359150565b918252602082015260400190565b634e487b7160e01b600052604160045260246000fd5b604051601f8201601f191681016001600160401b0381118282101715614e7857614e78614e3a565b604052919050565b60008060408385031215614e9357600080fd5b8235614e9e81614bdc565b91506020838101356001600160401b0380821115614ebb57600080fd5b818601915086601f830112614ecf57600080fd5b813581811115614ee157614ee1614e3a565b614ef3601f8201601f19168501614e50565b91508082528784828501011115614f0957600080fd5b80848401858401376000848284010152508093505050509250929050565b60008060408385031215614f3a57600080fd5b8235614f4581614bdc565b946020939093013593505050565b600080600060608486031215614f6857600080fd5b83359250602084013591506040840135614f8181614bdc565b809150509250925092565b600060208284031215614f9e57600080fd5b81356125a381614bdc565b6001600160801b038116811461193657600080fd5b801515811461193657600080fd5b60008060008060008060c08789031215614fe557600080fd5b863595506020870135614ff781614fa9565b945060408701359350606087013592506080870135915060a087013561501c81614fbe565b809150509295509295509295565b948552602085019390935260408401919091526060830152608082015260a00190565b600080600080600060a0868803121561506557600080fd5b85359450602086013593506040860135925060608601359150608086013561508c81614fbe565b809150509295509295909350565b60005b838110156150b557818101518382015260200161509d565b50506000910152565b600081518084526150d681602086016020860161509a565b601f01601f19169290920160200192915050565b6020815260006125a360208301846150be565b6000806000806080858703121561511357600080fd5b843561511e81614bdc565b9350602085013561512e81614bdc565b9250604085013561513e81614bdc565b9150606085013561514e81614bdc565b939692955090935050565b6000806040838503121561516c57600080fd5b82359150602083013561517e81614fbe565b809150509250929050565b6020808252825182820181905260009190848201906040850190845b818110156151c1578351835292840192918401916001016151a5565b50909695505050505050565b62ffffff8116811461193657600080fd5b8060020b811461193657600080fd5b60008060008060008060c0878903121561520657600080fd5b865161521181614bdc565b602088015190965061522281614bdc565b6040880151909550615233816151cd565b6060880151909450615244816151de565b6080880151909350615255816151de565b60a088015190925061501c81614fa9565b6001600160a01b03959095168552602085019390935260408401919091526060830152608082015260a00190565b6000806000606084860312156152a957600080fd5b8351925060208401519150604084015190509250925092565b6001600160a01b0392831681529116602082015260400190565b8051600781900b8114612b3957600080fd5b60006020828403121561530057600080fd5b6125a3826152dc565b6001600160a01b0392909216825260070b602082015260400190565b60006020828403121561533757600080fd5b5051919050565b6001600160a01b039384168152919092166020820152604081019190915260600190565b634e487b7160e01b600052601160045260246000fd5b808201808211156136d2576136d2615362565b8035612b39816151cd565b8035612b39816151de565b61014081016153b8826153b385614bf1565b614bcf565b6153c460208401614bf1565b6153d16020840182614bcf565b506153de6040840161538b565b62ffffff1660408301526153f460608401615396565b615403606084018260020b9052565b5061541060808401615396565b61541f608084018260020b9052565b5060a083013560a083015260c083013560c083015260e083013560e083015261010080840135818401525061012080840135818401525092915050565b6000806000806080858703121561547257600080fd5b84519350602085015161548481614fa9565b6040860151606090960151949790965092505050565b6000602082840312156154ac57600080fd5b81356125a3816151cd565b6000602082840312156154c957600080fd5b81356125a3816151de565b600181815b8085111561550f5781600019048211156154f5576154f5615362565b8085161561550257918102915b93841c93908002906154d9565b509250929050565b600082615526575060016136d2565b81615533575060006136d2565b816001811461554957600281146155535761556f565b60019150506136d2565b60ff84111561556457615564615362565b50506001821b6136d2565b5060208310610133831016604e8410600b8410161715615592575081810a6136d2565b61559c83836154d4565b80600019048211156155b0576155b0615362565b029392505050565b60006125a360ff841683615517565b80820281158282048414176136d2576136d2615362565b600080604083850312156155f157600080fd5b505080516020909101519092909150565b6001600160a01b03929092168252602082015260400190565b6000806040838503121561562e57600080fd5b615637836152dc565b9150602083015161517e81614fbe565b602081526000825160a0602084015261566360c08401826150be565b905060018060a01b0360208501511660408401526040840151606084015260608401516080840152608084015160a08401528091505092915050565b6000826156bc57634e487b7160e01b600052601260045260246000fd5b500490565b818103818111156136d2576136d2615362565b6001600160a01b03948516815292841660208401529216604082015260079190910b606082015260800190565b60006001600160401b0382111561571a5761571a614e3a565b5060051b60200190565b6000602080838503121561573757600080fd5b82516001600160401b0381111561574d57600080fd5b8301601f8101851361575e57600080fd5b805161577161576c82615701565b614e50565b81815260059190911b8201830190838101908783111561579057600080fd5b928401925b828410156157ae57835182529284019290840190615795565b979650505050505050565b600080600080600060a086880312156157d157600080fd5b5050835160208501516040860151606087015160809097015192989197509594509092509050565b6040808252600d908201526c2ba12a21903a3930b739b332b960991b606082015260079190910b602082015260800190565b60006001820161583d5761583d615362565b5060010190565b6040808252600d908201526c2aa9a221903a3930b739b332b960991b606082015260079190910b602082015260800190565b6040808252600d908201526c2ba2aa24103a3930b739b332b960991b606082015260079190910b602082015260800190565b6040808252600f908201526e2c29a0aaa1a2903a3930b739b332b960891b606082015260079190910b602082015260800190565b60006060820160018060a01b0386168352602060078660070b60208601526060604086015282865180855260808701915060208801945060005b81811015615934578551840b83529484019491840191600101615916565b50909998505050505050505050565b6000806040838503121561595657600080fd5b61595f836152dc565b915061596d602084016152dc565b90509250929050565b60006060820160018060a01b038616835260208560070b60208501526060604085015281855180845260808601915060808160051b87010193506020870160005b828110156159e557607f198887030184526159d38683516150be565b955092840192908401906001016159b7565b50939998505050505050505050565b600080600060608486031215615a0957600080fd5b615a12846152dc565b92506020615a218186016152dc565b60408601519093506001600160401b03811115615a3d57600080fd5b8501601f81018713615a4e57600080fd5b8051615a5c61576c82615701565b81815260059190911b82018301908381019089831115615a7b57600080fd5b928401925b82841015615aa057615a91846152dc565b82529284019290840190615a80565b80955050505050509250925092565b60008251615ac181846020870161509a565b919091019291505056fe6c452a6a0f6c8613bd46d4bd9a6192b0904a3f33a64c294ba553582502dfd770360894a13ba1a3210667c828492db98dca3e2076cc3735a920a3ca505d382bbcdba6742b403f91ba4bdac157a4315ca9e09412ea4375f6ebbd570c7676c11f474b41b9acdf575ad887e048edf13d299f67ae378fed342d84c462998006dd23956c4266ca0ff60e6555e5145017842107c12b86f62998e5372adba83897d02189a264697066735822122014a4ef6fc940c65daeb81cc5735ceaad5dffc0ba56f9151d3211f2a0b305870264736f6c63430008160033",
  "linkReferences": {},
  "deployedLinkReferences": {}
}