{
  "_format": "hh-sol-artifact-1",
  "contractName": "VaultLPManager",
  "sourceName": "contracts/VaultLPManager.sol",
  "abi": [
    {
      "inputs": [
        {
          "internalType": "address",
          "name": "_admin",
          "type": "address"
        }
      ],
      "stateMutability": "nonpayable",
      "type": "constructor"
    },
    {
      "inputs": [
        {
          "internalType": "address",
          "name": "token",
          "type": "address"
        }
      ],
      "name": "ApprovalFailed",
      "type": "error"
    },
    {
      "inputs": [],
      "name": "InsufficientHbar",
      "type": "error"
    },
    {
      "inputs": [
        {
          "internalType": "uint256",
          "name": "tokenSN",
          "type": "uint256"
        },
        {
          "internalType": "uint128",
          "name": "requested",
          "type": "uint128"
        },
        {
          "internalType": "uint128",
          "name": "available",
          "type": "uint128"
        }
      ],
      "name": "InsufficientLiquidity",
      "type": "error"
    },
    {
      "inputs": [],
      "name": "InsufficientMintFee",
      "type": "error"
    },
    {
      "inputs": [
        {
          "internalType": "uint256",
          "name": "tokenSN",
          "type": "uint256"
        }
      ],
      "name": "LPPositionNotFound",
      "type": "error"
    },
    {
      "inputs": [],
      "name": "LpNftNotSet",
      "type": "error"
    },
    {
      "inputs": [],
      "name": "NftManagerNotSet",
      "type": "error"
    },
    {
      "inputs": [],
      "name": "OnlyAdmin",
      "type": "error"
    },
    {
      "inputs": [],
      "name": "OnlyVault",
      "type": "error"
    },
    {
      "inputs": [],
      "name": "RouterNotSet",
      "type": "error"
    },
    {
      "inputs": [],
      "name": "SaucerSwapNotConfigured",
      "type": "error"
    },
    {
      "inputs": [
        {
          "internalType": "address",
          "name": "token",
          "type": "address"
        }
      ],
      "name": "TokenNotInComposition",
      "type": "error"
    },
    {
      "inputs": [],
      "name": "WhbarHelperNotSet",
      "type": "error"
    },
    {
      "inputs": [],
      "name": "WhbarNotSet",
      "type": "error"
    },
    {
      "anonymous": false,
      "inputs": [
        {
          "indexed": false,
          "internalType": "address",
          "name": "token",
          "type": "address"
        },
        {
          "indexed": false,
          "internalType": "bool",
          "name": "allowed",
          "type": "bool"
        }
      ],
      "name": "CompositionTokenSet",
      "type": "event"
    },
    {
      "anonymous": false,
      "inputs": [
        {
          "indexed": true,
          "internalType": "uint256",
          "name": "tokenSN",
          "type": "uint256"
        },
        {
          "indexed": false,
          "internalType": "uint256",
          "name": "amount0",
          "type": "uint256"
        },
        {
          "indexed": false,
          "internalType": "uint256",
          "name": "amount1",
          "type": "uint256"
        }
      ],
      "name": "LPFeesCollected",
      "type": "event"
    },
    {
      "anonymous": false,
      "inputs": [
        {
          "indexed": true,
          "internalType": "uint256",
          "name": "tokenSN",
          "type": "uint256"
        }
      ],
      "name": "LPPositionClosed",
      "type": "event"
    },
    {
      "anonymous": false,
      "inputs": [
        {
          "indexed": true,
          "internalType": "uint256",
          "name": "tokenSN",
          "type": "uint256"
        },
        {
          "indexed": false,
          "internalType": "address",
          "name": "token0",
          "type": "address"
        },
        {
          "indexed": false,
          "internalType": "address",
          "name": "token1",
          "type": "address"
        },
        {
          "indexed": false,
          "internalType": "uint24",
          "name": "fee",
          "type": "uint24"
        },
        {
          "indexed": false,
          "internalType": "int24",
          "name": "tickLower",
          "type": "int24"
        },
        {
          "indexed": false,
          "internalType": "int24",
          "name": "tickUpper",
          "type": "int24"
        },
        {
          "indexed": false,
          "internalType": "uint128",
          "name": "liquidity",
          "type": "uint128"
        },
        {
          "indexed": false,
          "internalType": "uint256",
          "name": "amount0",
          "type": "uint256"
        },
        {
          "indexed": false,
          "internalType": "uint256",
          "name": "amount1",
          "type": "uint256"
        }
      ],
      "name": "LPPositionCreated",
      "type": "event"
    },
    {
      "anonymous": false,
      "inputs": [
        {
          "indexed": true,
          "internalType": "uint256",
          "name": "tokenSN",
          "type": "uint256"
        },
        {
          "indexed": false,
          "internalType": "uint128",
          "name": "liquidityRemoved",
          "type": "uint128"
        },
        {
          "indexed": false,
          "internalType": "uint256",
          "name": "amount0",
          "type": "uint256"
        },
        {
          "indexed": false,
          "internalType": "uint256",
          "name": "amount1",
          "type": "uint256"
        }
      ],
      "name": "LPPositionDecreased",
      "type": "event"
    },
    {
      "anonymous": false,
      "inputs": [
        {
          "indexed": false,
          "internalType": "address",
          "name": "nftManager",
          "type": "address"
        },
        {
          "indexed": false,
          "internalType": "address",
          "name": "lpNft",
          "type": "address"
        },
        {
          "indexed": false,
          "internalType": "address",
          "name": "whbar",
          "type": "address"
        }
      ],
      "name": "SaucerSwapConfigUpdated",
      "type": "event"
    },
    {
      "anonymous": false,
      "inputs": [
        {
          "indexed": false,
          "internalType": "address",
          "name": "router",
          "type": "address"
        }
      ],
      "name": "SaucerSwapV1ConfigUpdated",
      "type": "event"
    },
    {
      "anonymous": false,
      "inputs": [
        {
          "indexed": true,
          "internalType": "address",
          "name": "vault",
          "type": "address"
        }
      ],
      "name": "VaultSet",
      "type": "event"
    },
    {
      "anonymous": false,
      "inputs": [
        {
          "indexed": false,
          "internalType": "uint256",
          "name": "amount",
          "type": "uint256"
        }
      ],
      "name": "WithdrawnHbarToVault",
      "type": "event"
    },
    {
      "anonymous": false,
      "inputs": [
        {
          "indexed": false,
          "internalType": "address",
          "name": "token",
          "type": "address"
        },
        {
          "indexed": false,
          "internalType": "uint256",
          "name": "amount",
          "type": "uint256"
        }
      ],
      "name": "WithdrawnToVault",
      "type": "event"
    },
    {
      "inputs": [],
      "name": "SAUCERSWAP_LP_NFT",
      "outputs": [
        {
          "internalType": "address",
          "name": "",
          "type": "address"
        }
      ],
      "stateMutability": "view",
      "type": "function"
    },
    {
      "inputs": [],
      "name": "SAUCERSWAP_NFT_MANAGER",
      "outputs": [
        {
          "internalType": "address",
          "name": "",
          "type": "address"
        }
      ],
      "stateMutability": "view",
      "type": "function"
    },
    {
      "inputs": [],
      "name": "SAUCERSWAP_V1_ROUTER",
      "outputs": [
        {
          "internalType": "address",
          "name": "",
          "type": "address"
        }
      ],
      "stateMutability": "view",
      "type": "function"
    },
    {
      "inputs": [],
      "name": "WHBAR_HELPER",
      "outputs": [
        {
          "internalType": "address",
          "name": "",
          "type": "address"
        }
      ],
      "stateMutability": "view",
      "type": "function"
    },
    {
      "inputs": [],
      "name": "WHBAR_TOKEN",
      "outputs": [
        {
          "internalType": "address",
          "name": "",
          "type": "address"
        }
      ],
      "stateMutability": "view",
      "type": "function"
    },
    {
      "inputs": [
        {
          "internalType": "address",
          "name": "tokenA",
          "type": "address"
        },
        {
          "internalType": "address",
          "name": "tokenB",
          "type": "address"
        },
        {
          "internalType": "uint256",
          "name": "amountADesired",
          "type": "uint256"
        },
        {
          "internalType": "uint256",
          "name": "amountBDesired",
          "type": "uint256"
        },
        {
          "internalType": "uint256",
          "name": "amountAMin",
          "type": "uint256"
        },
        {
          "internalType": "uint256",
          "name": "amountBMin",
          "type": "uint256"
        },
        {
          "internalType": "uint256",
          "name": "deadline",
          "type": "uint256"
        }
      ],
      "name": "addLiquidityV1",
      "outputs": [
        {
          "internalType": "uint256",
          "name": "amountA",
          "type": "uint256"
        },
        {
          "internalType": "uint256",
          "name": "amountB",
          "type": "uint256"
        },
        {
          "internalType": "uint256",
          "name": "liquidity",
          "type": "uint256"
        }
      ],
      "stateMutability": "nonpayable",
      "type": "function"
    },
    {
      "inputs": [
        {
          "internalType": "address",
          "name": "token",
          "type": "address"
        },
        {
          "internalType": "uint256",
          "name": "amountTokenDesired",
          "type": "uint256"
        },
        {
          "internalType": "uint256",
          "name": "amountTokenMin",
          "type": "uint256"
        },
        {
          "internalType": "uint256",
          "name": "amountHBARMin",
          "type": "uint256"
        },
        {
          "internalType": "uint256",
          "name": "deadline",
          "type": "uint256"
        }
      ],
      "name": "addLiquidityV1ETH",
      "outputs": [
        {
          "internalType": "uint256",
          "name": "amountToken",
          "type": "uint256"
        },
        {
          "internalType": "uint256",
          "name": "amountHBAR",
          "type": "uint256"
        },
        {
          "internalType": "uint256",
          "name": "liquidity",
          "type": "uint256"
        }
      ],
      "stateMutability": "payable",
      "type": "function"
    },
    {
      "inputs": [],
      "name": "admin",
      "outputs": [
        {
          "internalType": "address",
          "name": "",
          "type": "address"
        }
      ],
      "stateMutability": "view",
      "type": "function"
    },
    {
      "inputs": [
        {
          "internalType": "address",
          "name": "token",
          "type": "address"
        },
        {
          "internalType": "uint256",
          "name": "amount",
          "type": "uint256"
        }
      ],
      "name": "approveSaucerSwapSpending",
      "outputs": [],
      "stateMutability": "nonpayable",
      "type": "function"
    },
    {
      "inputs": [
        {
          "internalType": "address",
          "name": "token",
          "type": "address"
        },
        {
          "internalType": "uint256",
          "name": "amount",
          "type": "uint256"
        }
      ],
      "name": "approveSaucerSwapV1Spending",
      "outputs": [],
      "stateMutability": "nonpayable",
      "type": "function"
    },
    {
      "inputs": [],
      "name": "associateSaucerSwapTokens",
      "outputs": [],
      "stateMutability": "nonpayable",
      "type": "function"
    },
    {
      "inputs": [
        {
          "internalType": "address",
          "name": "token",
          "type": "address"
        }
      ],
      "name": "associateTokenAdmin",
      "outputs": [],
      "stateMutability": "nonpayable",
      "type": "function"
    },
    {
      "inputs": [
        {
          "internalType": "uint256",
          "name": "tokenSN",
          "type": "uint256"
        },
        {
          "internalType": "uint256",
          "name": "amount0Min",
          "type": "uint256"
        },
        {
          "internalType": "uint256",
          "name": "amount1Min",
          "type": "uint256"
        },
        {
          "internalType": "uint256",
          "name": "deadline",
          "type": "uint256"
        },
        {
          "internalType": "bool",
          "name": "unwrapHbar",
          "type": "bool"
        }
      ],
      "name": "closeLPPosition",
      "outputs": [
        {
          "internalType": "uint256",
          "name": "amount0",
          "type": "uint256"
        },
        {
          "internalType": "uint256",
          "name": "amount1",
          "type": "uint256"
        }
      ],
      "stateMutability": "nonpayable",
      "type": "function"
    },
    {
      "inputs": [
        {
          "internalType": "uint256",
          "name": "tokenSN",
          "type": "uint256"
        },
        {
          "internalType": "bool",
          "name": "unwrapHbar",
          "type": "bool"
        }
      ],
      "name": "collectLPFees",
      "outputs": [
        {
          "internalType": "uint256",
          "name": "amount0",
          "type": "uint256"
        },
        {
          "internalType": "uint256",
          "name": "amount1",
          "type": "uint256"
        }
      ],
      "stateMutability": "nonpayable",
      "type": "function"
    },
    {
      "inputs": [
        {
          "internalType": "address",
          "name": "nftManager",
          "type": "address"
        },
        {
          "internalType": "address",
          "name": "lpNft",
          "type": "address"
        },
        {
          "internalType": "address",
          "name": "whbar",
          "type": "address"
        },
        {
          "internalType": "address",
          "name": "whbarHelper",
          "type": "address"
        }
      ],
      "name": "configureSaucerSwap",
      "outputs": [],
      "stateMutability": "nonpayable",
      "type": "function"
    },
    {
      "inputs": [
        {
          "internalType": "address",
          "name": "router",
          "type": "address"
        }
      ],
      "name": "configureSaucerSwapV1",
      "outputs": [],
      "stateMutability": "nonpayable",
      "type": "function"
    },
    {
      "inputs": [
        {
          "components": [
            {
              "internalType": "address",
              "name": "token0",
              "type": "address"
            },
            {
              "internalType": "address",
              "name": "token1",
              "type": "address"
            },
            {
              "internalType": "uint24",
              "name": "fee",
              "type": "uint24"
            },
            {
              "internalType": "int24",
              "name": "tickLower",
              "type": "int24"
            },
            {
              "internalType": "int24",
              "name": "tickUpper",
              "type": "int24"
            },
            {
              "internalType": "uint256",
              "name": "amount0Desired",
              "type": "uint256"
            },
            {
              "internalType": "uint256",
              "name": "amount1Desired",
              "type": "uint256"
            },
            {
              "internalType": "uint256",
              "name": "amount0Min",
              "type": "uint256"
            },
            {
              "internalType": "uint256",
              "name": "amount1Min",
              "type": "uint256"
            },
            {
              "internalType": "uint256",
              "name": "deadline",
              "type": "uint256"
            }
          ],
          "internalType": "struct ILPModule.CreateLPParams",
          "name": "params",
          "type": "tuple"
        }
      ],
      "name": "createLPPosition",
      "outputs": [
        {
          "internalType": "uint256",
          "name": "tokenSN",
          "type": "uint256"
        },
        {
          "internalType": "uint128",
          "name": "liquidity",
          "type": "uint128"
        },
        {
          "internalType": "uint256",
          "name": "amount0",
          "type": "uint256"
        },
        {
          "internalType": "uint256",
          "name": "amount1",
          "type": "uint256"
        }
      ],
      "stateMutability": "payable",
      "type": "function"
    },
    {
      "inputs": [
        {
          "internalType": "uint256",
          "name": "tokenSN",
          "type": "uint256"
        },
        {
          "internalType": "uint128",
          "name": "liquidityToRemove",
          "type": "uint128"
        },
        {
          "internalType": "uint256",
          "name": "amount0Min",
          "type": "uint256"
        },
        {
          "internalType": "uint256",
          "name": "amount1Min",
          "type": "uint256"
        },
        {
          "internalType": "uint256",
          "name": "deadline",
          "type": "uint256"
        },
        {
          "internalType": "bool",
          "name": "unwrapHbar",
          "type": "bool"
        }
      ],
      "name": "decreaseLPPosition",
      "outputs": [
        {
          "internalType": "uint256",
          "name": "amount0",
          "type": "uint256"
        },
        {
          "internalType": "uint256",
          "name": "amount1",
          "type": "uint256"
        }
      ],
      "stateMutability": "nonpayable",
      "type": "function"
    },
    {
      "inputs": [],
      "name": "getActiveLPPositionCount",
      "outputs": [
        {
          "internalType": "uint256",
          "name": "count",
          "type": "uint256"
        }
      ],
      "stateMutability": "view",
      "type": "function"
    },
    {
      "inputs": [],
      "name": "getHbarBalance",
      "outputs": [
        {
          "internalType": "uint256",
          "name": "",
          "type": "uint256"
        }
      ],
      "stateMutability": "view",
      "type": "function"
    },
    {
      "inputs": [
        {
          "internalType": "uint256",
          "name": "tokenSN",
          "type": "uint256"
        }
      ],
      "name": "getLPPositionDetails",
      "outputs": [
        {
          "internalType": "address",
          "name": "token0",
          "type": "address"
        },
        {
          "internalType": "address",
          "name": "token1",
          "type": "address"
        },
        {
          "internalType": "uint24",
          "name": "fee",
          "type": "uint24"
        },
        {
          "internalType": "int24",
          "name": "tickLower",
          "type": "int24"
        },
        {
          "internalType": "int24",
          "name": "tickUpper",
          "type": "int24"
        },
        {
          "internalType": "uint128",
          "name": "liquidity",
          "type": "uint128"
        }
      ],
      "stateMutability": "view",
      "type": "function"
    },
    {
      "inputs": [],
      "name": "getLPPositions",
      "outputs": [
        {
          "internalType": "uint256[]",
          "name": "",
          "type": "uint256[]"
        }
      ],
      "stateMutability": "view",
      "type": "function"
    },
    {
      "inputs": [
        {
          "internalType": "address",
          "name": "",
          "type": "address"
        }
      ],
      "name": "isCompositionToken",
      "outputs": [
        {
          "internalType": "bool",
          "name": "",
          "type": "bool"
        }
      ],
      "stateMutability": "view",
      "type": "function"
    },
    {
      "inputs": [
        {
          "internalType": "uint256",
          "name": "",
          "type": "uint256"
        }
      ],
      "name": "lpPositionSerials",
      "outputs": [
        {
          "internalType": "uint256",
          "name": "",
          "type": "uint256"
        }
      ],
      "stateMutability": "view",
      "type": "function"
    },
    {
      "inputs": [
        {
          "internalType": "uint256",
          "name": "",
          "type": "uint256"
        }
      ],
      "name": "lpPositions",
      "outputs": [
        {
          "internalType": "address",
          "name": "token0",
          "type": "address"
        },
        {
          "internalType": "address",
          "name": "token1",
          "type": "address"
        },
        {
          "internalType": "uint24",
          "name": "fee",
          "type": "uint24"
        },
        {
          "internalType": "int24",
          "name": "tickLower",
          "type": "int24"
        },
        {
          "internalType": "int24",
          "name": "tickUpper",
          "type": "int24"
        },
        {
          "internalType": "uint128",
          "name": "liquidity",
          "type": "uint128"
        },
        {
          "internalType": "bool",
          "name": "active",
          "type": "bool"
        }
      ],
      "stateMutability": "view",
      "type": "function"
    },
    {
      "inputs": [
        {
          "internalType": "address",
          "name": "tokenA",
          "type": "address"
        },
        {
          "internalType": "address",
          "name": "tokenB",
          "type": "address"
        },
        {
          "internalType": "uint256",
          "name": "liquidity",
          "type": "uint256"
        },
        {
          "internalType": "uint256",
          "name": "amountAMin",
          "type": "uint256"
        },
        {
          "internalType": "uint256",
          "name": "amountBMin",
          "type": "uint256"
        },
        {
          "internalType": "uint256",
          "name": "deadline",
          "type": "uint256"
        }
      ],
      "name": "removeLiquidityV1",
      "outputs": [
        {
          "internalType": "uint256",
          "name": "amountA",
          "type": "uint256"
        },
        {
          "internalType": "uint256",
          "name": "amountB",
          "type": "uint256"
        }
      ],
      "stateMutability": "nonpayable",
      "type": "function"
    },
    {
      "inputs": [
        {
          "internalType": "address",
          "name": "token",
          "type": "address"
        },
        {
          "internalType": "uint256",
          "name": "liquidity",
          "type": "uint256"
        },
        {
          "internalType": "uint256",
          "name": "amountTokenMin",
          "type": "uint256"
        },
        {
          "internalType": "uint256",
          "name": "amountHBARMin",
          "type": "uint256"
        },
        {
          "internalType": "uint256",
          "name": "deadline",
          "type": "uint256"
        }
      ],
      "name": "removeLiquidityV1ETH",
      "outputs": [
        {
          "internalType": "uint256",
          "name": "amountToken",
          "type": "uint256"
        },
        {
          "internalType": "uint256",
          "name": "amountHBAR",
          "type": "uint256"
        }
      ],
      "stateMutability": "nonpayable",
      "type": "function"
    },
    {
      "inputs": [
        {
          "internalType": "address",
          "name": "token",
          "type": "address"
        },
        {
          "internalType": "bool",
          "name": "allowed",
          "type": "bool"
        }
      ],
      "name": "setCompositionToken",
      "outputs": [],
      "stateMutability": "nonpayable",
      "type": "function"
    },
    {
      "inputs": [
        {
          "internalType": "address",
          "name": "_vault",
          "type": "address"
        }
      ],
      "name": "setVault",
      "outputs": [],
      "stateMutability": "nonpayable",
      "type": "function"
    },
    {
      "inputs": [],
      "name": "vault",
      "outputs": [
        {
          "internalType": "address",
          "name": "",
          "type": "address"
        }
      ],
      "stateMutability": "view",
      "type": "function"
    },
    {
      "inputs": [
        {
          "internalType": "uint256",
          "name": "amount",
          "type": "uint256"
        }
      ],
      "name": "withdrawHbarToVault",
      "outputs": [],
      "stateMutability": "nonpayable",
      "type": "function"
    },
    {
      "inputs": [
        {
          "internalType": "address",
          "name": "token",
          "type": "address"
        },
        {
          "internalType": "uint256",
          "name": "amount",
          "type": "uint256"
        }
      ],
      "name": "withdrawToVault",
      "outputs": [],
      "stateMutability": "nonpayable",
      "type": "function"
    },
    {
      "stateMutability": "payable",
      "type": "receive"
    }
  ],
  "bytecode": "0x60806040523480156200001157600080fd5b50604051620030a8380380620030a8833981016040819052620000349162000065565b600280546001600160a01b039092166001600160a01b03199283161790556000805490911661016717905562000097565b6000602082840312156200007857600080fd5b81516001600160a01b03811681146200009057600080fd5b9392505050565b61300180620000a76000396000f3fe6080604052600436106101765760003560e01c8062332e48146101825780630a1e17a0146101f85780630ba9898c1461021a5780630e8fb99b14610248578063119c76f71461028857806314b8f6711461036157806323f153381461038457806333f2eba5146103bf57806339bff4c7146103df5780633f39bbf71461041457806356c6b0cb1461044157806356cbaaba1461046157806363ec8bfa146104815780636817031b146104a15780637bd82c69146104c15780638283b4bf146104d45780638992ac36146104f457806391c23cea14610514578063a25afced14610534578063a48f147d14610554578063ae96ccd914610574578063b3850b9c14610594578063b963fc0c146105b4578063c78f3f76146105d4578063d23d1161146105f4578063d40b468a14610614578063e918d3c814610634578063ea7fe2b214610654578063ef96184a14610674578063f6feb58214610689578063f851a440146106ab578063fbfa77cf146106cb57600080fd5b3661017d57005b600080fd5b34801561018e57600080fd5b506101a261019d3660046127df565b6106eb565b604080516001600160a01b03978816815296909516602087015262ffffff90931693850193909352600290810b60608501529190910b60808301526001600160801b031660a082015260c0015b60405180910390f35b34801561020457600080fd5b5061021861021336600461282f565b6107a8565b005b61022d610228366004612864565b610836565b604080519384526020840192909252908201526060016101ef565b34801561025457600080fd5b506102786102633660046128a8565b600a6020526000908152604090205460ff1681565b60405190151581526020016101ef565b34801561029457600080fd5b506103096102a33660046127df565b6008602052600090815260409020805460018201546002928301546001600160a01b039283169392821692600160a01b830462ffffff1692600160b81b8104820b92600160d01b90910490910b906001600160801b03811690600160801b900460ff1687565b604080516001600160a01b03988916815297909616602088015262ffffff90941694860194909452600291820b6060860152900b60808401526001600160801b0390911660a0830152151560c082015260e0016101ef565b34801561036d57600080fd5b5061037661092f565b6040519081526020016101ef565b6103976103923660046128cc565b61099d565b604080519485526001600160801b0390931660208501529183015260608201526080016101ef565b3480156103cb57600080fd5b5061022d6103da3660046128e5565b610fb7565b3480156103eb57600080fd5b506103ff6103fa366004612947565b6110c6565b604080519283526020830191909152016101ef565b34801561042057600080fd5b50600754610434906001600160a01b031681565b6040516101ef91906129a0565b34801561044d57600080fd5b5061021861045c3660046129b4565b6111c7565b34801561046d57600080fd5b50600554610434906001600160a01b031681565b34801561048d57600080fd5b506103ff61049c366004612864565b6112c5565b3480156104ad57600080fd5b506102186104bc3660046128a8565b6113a7565b3480156104cd57600080fd5b5047610376565b3480156104e057600080fd5b506103ff6104ef3660046129f5565b61141c565b34801561050057600080fd5b5061021861050f3660046127df565b6115f6565b34801561052057600080fd5b50600354610434906001600160a01b031681565b34801561054057600080fd5b506103ff61054f366004612a4f565b6116bc565b34801561056057600080fd5b5061037661056f3660046127df565b6118ed565b34801561058057600080fd5b5061021861058f3660046128a8565b61190e565b3480156105a057600080fd5b50600454610434906001600160a01b031681565b3480156105c057600080fd5b506102186105cf3660046128a8565b6119ef565b3480156105e057600080fd5b506102186105ef366004612a98565b611a8c565b34801561060057600080fd5b5061021861060f3660046129b4565b611be9565b34801561062057600080fd5b50600654610434906001600160a01b031681565b34801561064057600080fd5b5061021861064f3660046129b4565b611d2a565b34801561066057600080fd5b506103ff61066f366004612af4565b611db8565b34801561068057600080fd5b50610218611ec0565b34801561069557600080fd5b5061069e612084565b6040516101ef9190612b17565b3480156106b757600080fd5b50600254610434906001600160a01b031681565b3480156106d757600080fd5b50600154610434906001600160a01b031681565b60035460405163133f757160e31b815260048101839052600091829182918291829182916001600160a01b03909116906399fbab889060240161018060405180830381865afa158015610742573d6000803e3d6000fd5b505050506040513d601f19601f820116820180604052508101906107669190612ba7565b909192939495969798999a50909192939495969798995090919250909150905050809650819750829850839950849a50859b5050505050505091939550919395565b6002546001600160a01b031633146107d357604051634755657960e01b815260040160405180910390fd5b6001600160a01b0382166000818152600a6020908152604091829020805460ff19168515159081179091558251938452908301527f731c5d1ef23ff0d7459e5e9f4fe406f4562123a0b27ee7cb326038f079501ba0910160405180910390a15050565b600154600090819081906001600160a01b0316331461086857604051638d1af8bd60e01b815260040160405180910390fd5b6007546001600160a01b031661089157604051637a741d5360e01b815260040160405180910390fd5b61089f565b60405180910390fd5b60075460405163f305d71960e01b81526001600160a01b039091169063f305d7199034906108db908c908c908c908c9030908d90600401612c83565b60606040518083038185885af11580156108f9573d6000803e3d6000fd5b50505050506040513d601f19601f8201168201806040525081019061091e9190612cbe565b919a90995090975095505050505050565b6000805b60095481101561099957600860006009838154811061095457610954612cec565b9060005260206000200154815260200190815260200160002060020160109054906101000a900460ff1615610991578161098d81612d18565b9250505b600101610933565b5090565b6001546000908190819081906001600160a01b031633146109d157604051638d1af8bd60e01b815260040160405180910390fd5b6003546001600160a01b03166109fa57604051637a741d5360e01b815260040160405180910390fd5b610a10610a0a60208701876128a8565b50600190565b610a3b57610a2160208601866128a8565b60405163bae63bfd60e01b815260040161089691906129a0565b610a4e610a0a60408701602088016128a8565b610a6257610a2160408601602087016128a8565b6001546001600160a01b0316610a8b57604051637a741d5360e01b815260040160405180910390fd5b6005546001600160a01b0316610aa460208701876128a8565b6001600160a01b031614610b8157600080546001600160a01b031663eca36917610ad160208901896128a8565b6001546040516001600160e01b031960e085901b168152610b0792916001600160a01b031690309060a08d013590600401612d31565b6020604051808303816000875af1158015610b26573d6000803e3d6000fd5b505050506040513d601f19601f82011682018060405250810190610b4a9190612d5e565b9050600781900b601614610b7f57610b6560208701876128a8565b60405163e5a0a42f60e01b815260040161089691906129a0565b505b6005546001600160a01b0316610b9d60408701602088016128a8565b6001600160a01b031614610c6657600080546001600160a01b031663eca36917610bcd6040890160208a016128a8565b6001546040516001600160e01b031960e085901b168152610c0392916001600160a01b031690309060c08d013590600401612d31565b6020604051808303816000875af1158015610c22573d6000803e3d6000fd5b505050506040513d601f19601f82011682018060405250810190610c469190612d5e565b9050600781900b601614610c6457610b6560408701602088016128a8565b505b6005546305f5e100906000906001600160a01b0316610c8860208901896128a8565b6001600160a01b031614610ca0578660c00135610ca6565b8660a001355b9050600081118015610d2657506005546040516370a0823160e01b815282916001600160a01b0316906370a0823190610ce39030906004016129a0565b602060405180830381865afa158015610d00573d6000803e3d6000fd5b505050506040513d601f19601f82011682018060405250810190610d249190612d81565b105b15610d5c57610d5a610d3b60208901896128a8565b610d4b60408a0160208b016128a8565b8960a001358a60c001356120dc565b505b81471015610d7c57604051623d6c2560e81b815260040160405180910390fd5b60408051610160810190915260009080610d9960208b018b6128a8565b6001600160a01b03168152602001896020016020810190610dba91906128a8565b6001600160a01b03168152602001610dd860608b0160408c01612d9a565b62ffffff168152602001610df260808b0160608c01612db7565b60020b8152602001610e0a60a08b0160808c01612db7565b60020b815260a0808b0135602083015260c0808c013560408085019190915260e08d013560608501526101008d0135608085015230928401929092526101208c01359201919091526003549051634418b22b60e11b81529192506001600160a01b0316906388316456908590610e84908590600401612dd4565b60806040518083038185885af1158015610ea2573d6000803e3d6000fd5b50505050506040513d601f19601f82011682018060405250810190610ec79190612e8a565b92995090975095509350610edc8789886121e6565b867f450ca8c1ab6c9dbb79993eec0486b9268a52f2f9d60a90e3f52460df537895dd610f0b60208b018b6128a8565b610f1b60408c0160208d016128a8565b610f2b60608d0160408e01612d9a565b610f3b60808e0160608f01612db7565b8d6080016020810190610f4e9190612db7565b604080516001600160a01b03968716815294909516602085015262ffffff9290921683850152600290810b60608401520b60808201526001600160801b038a1660a082015260c0810189905260e081018890529051908190036101000190a25050509193509193565b600154600090819081906001600160a01b03163314610fe957604051638d1af8bd60e01b815260040160405180910390fd5b6007546001600160a01b031661101257604051637a741d5360e01b815260040160405180910390fd5b60075460405162e8e33760e81b81526001600160a01b038c811660048301528b81166024830152604482018b9052606482018a90526084820189905260a482018890523060c483015260e482018790529091169063e8e3370090610104016060604051808303816000875af115801561108f573d6000803e3d6000fd5b505050506040513d601f19601f820116820180604052508101906110b39190612cbe565b919c909b50909950975050505050505050565b60015460009081906001600160a01b031633146110f657604051638d1af8bd60e01b815260040160405180910390fd5b6007546001600160a01b031661111f57604051637a741d5360e01b815260040160405180910390fd5b600754604051635d5155ef60e11b81526001600160a01b038a8116600483015289811660248301526044820189905260648201889052608482018790523060a483015260c482018690529091169063baa2abde9060e40160408051808303816000875af1158015611194573d6000803e3d6000fd5b505050506040513d601f19601f820116820180604052508101906111b89190612ec8565b90999098509650505050505050565b6002546001600160a01b031633146111f257604051634755657960e01b815260040160405180910390fd5b6007546001600160a01b031661121b57604051637a741d5360e01b815260040160405180910390fd5b6000805460075460405163e1f21c6760e01b81526001600160a01b039283169263e1f21c6792611255928892909116908790600401612eec565b6020604051808303816000875af1158015611274573d6000803e3d6000fd5b505050506040513d601f19601f820116820180604052508101906112989190612d5e565b90508060070b6016146112c0578260405163e5a0a42f60e01b815260040161089691906129a0565b505050565b60015460009081906001600160a01b031633146112f557604051638d1af8bd60e01b815260040160405180910390fd5b6007546001600160a01b031661131e57604051637a741d5360e01b815260040160405180910390fd5b600754604051629d473b60e21b81526001600160a01b03909116906302751cec90611357908a908a908a908a9030908b90600401612c83565b60408051808303816000875af1158015611375573d6000803e3d6000fd5b505050506040513d601f19601f820116820180604052508101906113999190612ec8565b909890975095505050505050565b6002546001600160a01b031633146113d257604051634755657960e01b815260040160405180910390fd5b600180546001600160a01b0319166001600160a01b0383169081179091556040517fe7ae49f883c825b05681b3e00e8be6fdea9ed2a8a45e4c6ecb9390fc44cce61590600090a250565b60015460009081906001600160a01b0316331461144c57604051638d1af8bd60e01b815260040160405180910390fd5b6003546001600160a01b031661147557604051637a741d5360e01b815260040160405180910390fd5b60008881526008602052604090206002810154600160801b900460ff166114b257604051632f79c24360e21b8152600481018a9052602401610896565b60028101546001600160801b039081169089161115611504576002810154604051638f177df160e01b8152600481018b90526001600160801b03808b1660248301529091166044820152606401610896565b611511898989898961239b565b61151a89612463565b600283018054929550909350899160009061153f9084906001600160801b0316612f10565b82546001600160801b039182166101009390930a92830291909202199091161790555080546001820154611582916001600160a01b039081169116858588612525565b88600080516020612fac8339815191528985856040516115a493929190612f37565b60405180910390a260028101546001600160801b03166000036115ea5760028101805460ff60801b191690556040518990600080516020612f8c83398151915290600090a25b50965096945050505050565b6001546001600160a01b0316331461162157604051638d1af8bd60e01b815260040160405180910390fd5b6001546001600160a01b031661164a57604051637a741d5360e01b815260040160405180910390fd5b6001546040516001600160a01b039091169082156108fc029083906000818181858888f19350505050158015611684573d6000803e3d6000fd5b506040518181527f2158ed473aad665b41613bd3d00327f66c41c05c50c229d3782ed200a6d7cf6d906020015b60405180910390a150565b60015460009081906001600160a01b031633146116ec57604051638d1af8bd60e01b815260040160405180910390fd5b6003546001600160a01b031661171557604051637a741d5360e01b815260040160405180910390fd5b60008781526008602052604090206002810154600160801b900460ff1661175257604051632f79c24360e21b815260048101899052602401610896565b60028101546001600160801b031680156117735761177389828a8a8a61239b565b61177c89612463565b6000546004805460035460405163082c2e2360e11b81526001600160a01b03928316938101939093528116602483015260078e900b604483015293975091955091909116906310585c46906064016020604051808303816000875af11580156117e9573d6000803e3d6000fd5b505050506040513d601f19601f8201168201806040525081019061180d9190612d5e565b50600354604051630852cd8d60e31b8152600481018b90526001600160a01b03909116906342966c6890602401600060405180830381600087803b15801561185457600080fd5b505af1158015611868573d6000803e3d6000fd5b5050506002830180546001600160881b0319169055508154600183015461189e916001600160a01b039081169116868689612525565b88600080516020612fac8339815191528286866040516118c093929190612f37565b60405180910390a26040518990600080516020612f8c83398151915290600090a250509550959350505050565b600981815481106118fd57600080fd5b600091825260209091200154905081565b6002546001600160a01b0316331461193957604051634755657960e01b815260040160405180910390fd5b6000805460405163248a35ef60e11b81526001600160a01b03909116906349146bde9061196c9030908690600401612f58565b6020604051808303816000875af115801561198b573d6000803e3d6000fd5b505050506040513d601f19601f820116820180604052508101906119af9190612d5e565b9050600781900b6016148015906119cb5750600781900b60c214155b156119eb578160405163e5a0a42f60e01b815260040161089691906129a0565b5050565b6002546001600160a01b03163314611a1a57604051634755657960e01b815260040160405180910390fd5b6001600160a01b038116611a415760405163179ce99f60e01b815260040160405180910390fd5b600780546001600160a01b0319166001600160a01b0383161790556040517fabf7734ce1fd90913372484502742ef5314d7edea025eeb32b74fd9213fe81c5906116b19083906129a0565b6002546001600160a01b03163314611ab757604051634755657960e01b815260040160405180910390fd5b6001600160a01b038416611ade576040516306c3792160e51b815260040160405180910390fd5b6001600160a01b038316611b055760405163021c228560e41b815260040160405180910390fd5b6001600160a01b038216611b2c57604051635f96df8b60e11b815260040160405180910390fd5b6001600160a01b038116611b535760405163dd2c272b60e01b815260040160405180910390fd5b600380546001600160a01b038681166001600160a01b03199283168117909355600480548783169084168117909155600580548784169085168117909155600680549387169390941692909217909255604080519384526020840192909252908201527f8b1a8cb55eb86a03ad13570a02154e8728829661fa44b3701333e4f80c5c6e2b9060600160405180910390a150505050565b6001546001600160a01b03163314611c1457604051638d1af8bd60e01b815260040160405180910390fd5b6001546001600160a01b0316611c3d57604051637a741d5360e01b815260040160405180910390fd5b6000805460015460405163eca3691760e01b81526001600160a01b039283169263eca3691792611c77928892309216908890600401612d31565b6020604051808303816000875af1158015611c96573d6000803e3d6000fd5b505050506040513d601f19601f82011682018060405250810190611cba9190612d5e565b9050600781900b601614611ce3578260405163e5a0a42f60e01b815260040161089691906129a0565b604080516001600160a01b0385168152602081018490527f0f8206d4a0cf612cc1b9c89e2d0e8350caec6719c10841d805c5fc640010b7aa910160405180910390a1505050565b6002546001600160a01b03163314611d5557604051634755657960e01b815260040160405180910390fd5b6003546001600160a01b0316611d7e57604051637a741d5360e01b815260040160405180910390fd5b6000805460035460405163e1f21c6760e01b81526001600160a01b039283169263e1f21c6792611255928892909116908790600401612eec565b60015460009081906001600160a01b03163314611de857604051638d1af8bd60e01b815260040160405180910390fd5b6003546001600160a01b0316611e1157604051637a741d5360e01b815260040160405180910390fd5b60008481526008602052604090206002810154600160801b900460ff16611e4e57604051632f79c24360e21b815260048101869052602401610896565b611e5785612463565b82546001840154929550909350611e7d916001600160a01b039182169116858588612525565b604080518481526020810184905286917fbc6bf21bce0e0158ccb9a617797aedce0dd66a7de7b0effc22acc107622846c7910160405180910390a2509250929050565b6004546001600160a01b03161580611ee157506005546001600160a01b0316155b15611eff57604051637a741d5360e01b815260040160405180910390fd5b600080546004805460405163248a35ef60e11b81526001600160a01b03938416936349146bde93611f3593309392169101612f58565b6020604051808303816000875af1158015611f54573d6000803e3d6000fd5b505050506040513d601f19601f82011682018060405250810190611f789190612d5e565b9050600781900b601614801590611f945750600781900b60c214155b15611fc0576004805460405163e5a0a42f60e01b8152610896926001600160a01b0390921691016129a0565b60005460055460405163248a35ef60e11b81526001600160a01b03928316926349146bde92611ff792309290911690600401612f58565b6020604051808303816000875af1158015612016573d6000803e3d6000fd5b505050506040513d601f19601f8201168201806040525081019061203a9190612d5e565b9050600781900b6016148015906120565750600781900b60c214155b156120815760055460405163e5a0a42f60e01b8152610896916001600160a01b0316906004016129a0565b50565b606060098054806020026020016040519081016040528092919081815260200182805480156120d257602002820191906000526020600020905b8154815260200190600101908083116120be575b5050505050905090565b6005546000906001600160a01b03908116908616036120fc575081612115565b6005546001600160a01b03908116908516036121155750805b80156121de576305f5e10061212a8183612f72565b47101561214a57604051631518c3f560e01b815260040160405180910390fd5b6006546001600160a01b03166121735760405163dd2c272b60e01b815260040160405180910390fd5b600660009054906101000a90046001600160a01b03166001600160a01b031663d0e30db0836040518263ffffffff1660e01b81526004016000604051808303818588803b1580156121c357600080fd5b505af11580156121d7573d6000803e3d6000fd5b5050505050505b949350505050565b6040805160e08101909152806121ff60208501856128a8565b6001600160a01b0316815260200183602001602081019061222091906128a8565b6001600160a01b0316815260200161223e6060850160408601612d9a565b62ffffff1681526020016122586080850160608601612db7565b60020b815260200161227060a0850160808601612db7565b600290810b82526001600160801b0393841660208084019190915260016040938401819052600088815260088352848120865181546001600160a01b0319166001600160a01b039182161782559387015181840180549789015160608a015160808b0151939097166001600160b81b031990991698909817600160a01b62ffffff998a16021765ffffffffffff60b81b1916600160b81b9689169690960262ffffff60d01b191695909517600160d01b97909116969096029590951790925560a085015193909201805460c090950151939095166001600160881b031990941693909317600160801b921515929092029190911790925560098054928301815590527f6e1540171b6c0c960b71a7020d9f60077f6af931a8bbf590da0223dacf75c7af019190915550565b6040805160a0810182528681526001600160801b038681166020830190815282840187815260608401878152608085018781526003549651630624e65f60e11b81528651600482015293519094166024840152905160448301525160648201529051608482015290916001600160a01b031690630c49ccbe9060a40160408051808303816000875af1158015612435573d6000803e3d6000fd5b505050506040513d601f19601f820116820180604052508101906124599190612ec8565b5050505050505050565b6040805160808101825282815230602082019081526001600160801b0382840181815260608401828152600354955163fc6f786560e01b81528551600482015293516001600160a01b03908116602486015291518316604485015251909116606483015260009384939291169063fc6f78659060840160408051808303816000875af11580156124f7573d6000803e3d6000fd5b505050506040513d601f19601f8201168201806040525081019061251b9190612ec8565b9250925050915091565b8215612659576005546001600160a01b03908116908616036125b157600554600154604051636ce5768960e11b81526001600160a01b039283169263d9caed129261257a923092909116908890600401612eec565b600060405180830381600087803b15801561259457600080fd5b505af11580156125a8573d6000803e3d6000fd5b50505050612659565b6000805460015460405163eca3691760e01b81526001600160a01b039283169263eca36917926125eb928b92309216908a90600401612d31565b6020604051808303816000875af115801561260a573d6000803e3d6000fd5b505050506040513d601f19601f8201168201806040525081019061262e9190612d5e565b9050600781900b601614612657578560405163e5a0a42f60e01b815260040161089691906129a0565b505b811561278d576005546001600160a01b03908116908516036126e557600554600154604051636ce5768960e11b81526001600160a01b039283169263d9caed12926126ae923092909116908790600401612eec565b600060405180830381600087803b1580156126c857600080fd5b505af11580156126dc573d6000803e3d6000fd5b5050505061278d565b6000805460015460405163eca3691760e01b81526001600160a01b039283169263eca369179261271f928a92309216908990600401612d31565b6020604051808303816000875af115801561273e573d6000803e3d6000fd5b505050506040513d601f19601f820116820180604052508101906127629190612d5e565b9050600781900b60161461278b578460405163e5a0a42f60e01b815260040161089691906129a0565b505b80156127d8574780156127d6576001546040516001600160a01b039091169082156108fc029083906000818181858888f193505050501580156127d4573d6000803e3d6000fd5b505b505b5050505050565b6000602082840312156127f157600080fd5b5035919050565b6001600160a01b03169052565b6001600160a01b038116811461208157600080fd5b8035801515811461282a57600080fd5b919050565b6000806040838503121561284257600080fd5b823561284d81612805565b915061285b6020840161281a565b90509250929050565b600080600080600060a0868803121561287c57600080fd5b853561288781612805565b97602087013597506040870135966060810135965060800135945092505050565b6000602082840312156128ba57600080fd5b81356128c581612805565b9392505050565b600061014082840312156128df57600080fd5b50919050565b600080600080600080600060e0888a03121561290057600080fd5b873561290b81612805565b9650602088013561291b81612805565b96999698505050506040850135946060810135946080820135945060a0820135935060c0909101359150565b60008060008060008060c0878903121561296057600080fd5b863561296b81612805565b9550602087013561297b81612805565b95989597505050506040840135936060810135936080820135935060a0909101359150565b6001600160a01b0391909116815260200190565b600080604083850312156129c757600080fd5b82356129d281612805565b946020939093013593505050565b6001600160801b038116811461208157600080fd5b60008060008060008060c08789031215612a0e57600080fd5b863595506020870135612a20816129e0565b9450604087013593506060870135925060808701359150612a4360a0880161281a565b90509295509295509295565b600080600080600060a08688031215612a6757600080fd5b85359450602086013593506040860135925060608601359150612a8c6080870161281a565b90509295509295909350565b60008060008060808587031215612aae57600080fd5b8435612ab981612805565b93506020850135612ac981612805565b92506040850135612ad981612805565b91506060850135612ae981612805565b939692955090935050565b60008060408385031215612b0757600080fd5b8235915061285b6020840161281a565b6020808252825182820181905260009190848201906040850190845b81811015612b4f57835183529284019291840191600101612b33565b50909695505050505050565b805161282a81612805565b62ffffff8116811461208157600080fd5b805161282a81612b66565b8060020b811461208157600080fd5b805161282a81612b82565b805161282a816129e0565b6000806000806000806000806000806000806101808d8f031215612bca57600080fd5b8c516001600160601b0381168114612be157600080fd5b9b50612bef60208e01612b5b565b9a50612bfd60408e01612b5b565b9950612c0b60608e01612b5b565b9850612c1960808e01612b77565b9750612c2760a08e01612b91565b9650612c3560c08e01612b91565b9550612c4360e08e01612b9c565b94506101008d015193506101208d01519250612c626101408e01612b9c565b9150612c716101608e01612b9c565b90509295989b509295989b509295989b565b6001600160a01b039687168152602081019590955260408501939093526060840191909152909216608082015260a081019190915260c00190565b600080600060608486031215612cd357600080fd5b8351925060208401519150604084015190509250925092565b634e487b7160e01b600052603260045260246000fd5b634e487b7160e01b600052601160045260246000fd5b600060018201612d2a57612d2a612d02565b5060010190565b6001600160a01b03948516815292841660208401529216604082015260079190910b606082015260800190565b600060208284031215612d7057600080fd5b81518060070b81146128c557600080fd5b600060208284031215612d9357600080fd5b5051919050565b600060208284031215612dac57600080fd5b81356128c581612b66565b600060208284031215612dc957600080fd5b81356128c581612b82565b600061016082019050612de88284516127f8565b6020830151612dfa60208401826127f8565b506040830151612e11604084018262ffffff169052565b506060830151612e26606084018260020b9052565b506080830151612e3b608084018260020b9052565b5060a083015160a083015260c083015160c083015260e083015160e083015261010080840151818401525061012080840151612e79828501826127f8565b505061014092830151919092015290565b60008060008060808587031215612ea057600080fd5b845193506020850151612eb2816129e0565b6040860151606090960151949790965092505050565b60008060408385031215612edb57600080fd5b505080516020909101519092909150565b6001600160a01b039384168152919092166020820152604081019190915260600190565b6001600160801b03828116828216039080821115612f3057612f30612d02565b5092915050565b6001600160801b039390931683526020830191909152604082015260600190565b6001600160a01b0392831681529116602082015260400190565b80820180821115612f8557612f85612d02565b9291505056fe65e9edd29606a1893dd4b013742c8e0349afb16fec36164c51f1b85946fa6558609864c23f392acc2733d4bf6c037a2af5a5ab8710a801f0fb46263a09fcff09a2646970667358221220e08e477f5754c33611344ec6e69bbc622f2aeae1cdc196a839a356d9abaf49d564736f6c63430008160033",
  "linkReferences": {},
  "deployedLinkReferences": {}
}